:020000040000FA
:060000009AEF00F012006F
:020006000000F8
:060008006AEF00F0120097
:02000E009A90C6
:020010001200DC
:020012001200DA
:060018007BEF00F0120076
:02001E00060ECC
:10002000F66E000EF76E000EF86E0F010900F55027
:10003000056F0900F550066F03E1056701D03DD05B
:100040000900F550006F0900F550016F0900F550E7
:10005000026F09000900F550E96E0900F550EA6EDB
:10006000090009000900F550036F0900F550046FFD
:1000700009000900F6CF07FFF7CF08FFF8CF09FF07
:1000800000CFF6FF01CFF7FF02CFF8FF0F010353B8
:1000900002E1045307E00900F550EE6E0307F8E2B1
:1000A0000407F9D707CFF6FF08CFF7FF09CFF8FF0E
:0C00B0000F010507000E065BBFD7120011
:0400BC0007EC00F05D
:1000C0008890A8EC00F0F184F28AF28E889000000B
:1000D000FED71200DACFE4FFE2CFDAFFE652F2A455
:1000E00006D08870A00ED76EA20ED66EF294E5529E
:1000F000E5CFDAFF1100DACFE4FFE2CFDAFFE65214
:08010000E552E5CFDAFF110022
:08010800800EF36E00EE00F022
:100110000E0E07D8600EF36E0FEE00F00F0E01D832
:100120001200EA6002D0EE6AFCD7F350E9601200D8
:04013000EE6AFCD7A0
:0C0134001DEE00F02DEE00F0F86A019CBA
:100140000FEC00F009EC00F05EEC00F0FBD71200C1
:10015000D59CD59AD596F80ED5140709D56EA00E64
:0A016000D76EA20ED66ED58E1200E7
:00000001FF
