:020000040000FA
:10000000B2EF16F0C96E120007EF09F0D9CFE5FF85
:10001000E1CFD9FF00C0E5FF01C0E5FF02C0E5FF69
:1000200003C0E5FF04C0E5FF05C0E5FF06C0E5FF2E
:1000300007C0E5FF08C0E5FF09C0E5FF0AC0E5FF0E
:100040000BC0E5FF0CC0E5FF0DC0E5FF0EC0E5FFEE
:100050000FC0E5FF10C0E5FF11C0E5FF0F014751DC
:100060000F01481118E10F0E016E210E006E800E77
:10007000026E000EE56E160EE56E260EE56E02505F
:10008000E56E0150E56E0050E56E63EC12F0060E71
:10009000E126B3EF04F00F014751010A03E10F011C
:1000A000485101E088D10F0E016E5C0E006E800E8B
:1000B000026E0250E56E0150E56E0050E56E0F01D4
:1000C0004A51E56E0F014951E56E0CEC14F0050E36
:1000D000E1260E0E016E2D0E006E800E026E025095
:1000E000E56E0150E56E0050E56E0F014C51E56E76
:1000F0000F014B51E56E0CEC14F0050EE1260E0ECF
:10010000016E300E006E800E026E0250E56E0150E0
:10011000E56E0050E56E0F014E51E56E0F014D5139
:10012000E56E0CEC14F0050EE1260F0145510F01B0
:100130004611D8B47ED00F0153510F015411D8B4D9
:100140003CD00E0E016E300E006E800E026E0E0E52
:10015000046E2D0E036E800E056E0F0E076E5C0E84
:10016000066E800E086E0F0E0A6E210E096E800E4E
:100170000B6E0250E56E0150E56E0050E56E0550C5
:10018000E56E0450E56E0350E56E0850E56E0750CD
:10019000E56E0650E56E000EE56E160EE56E380E45
:1001A000E56E0B50E56E0A50E56E0950E56E63ECA6
:1001B00012F00F0EE126B3EF04F00E0E016E300EBA
:1001C000006E800E026E0E0E046E2D0E036E800EFB
:1001D000056E0F0E076E5C0E066E800E086E0F0E1B
:1001E0000A6E210E096E800E0B6E0250E56E0150F4
:1001F000E56E0050E56E0550E56E0450E56E035067
:10020000E56E0850E56E0750E56E0650E56E000E8F
:10021000E56E160EE56E5A0EE56E0B50E56E0A5051
:10022000E56E0950E56E63EC12F00F0EE126B3EFB8
:1002300004F00F0143510F014411D8B480D00E0EC9
:10024000016E330E006E800E026E0250E56E01509C
:10025000E56E0050E56E0F015051E56E0F014F51F4
:10026000E56E0CEC14F0050EE1260E0E016E360E56
:10027000006E800E026E0250E56E0150E56E005079
:10028000E56E0F015251E56E0F015151E56E0CEC18
:1002900014F0050EE1260E0E016E360E006E800E75
:1002A000026E0E0E046E330E036E800E056E0E0E81
:1002B000076E300E066E800E086E0E0E0A6E2D0E44
:1002C000096E800E0B6E0F0E0D6E5C0E0C6E800EA6
:1002D0000E6E0F0E106E210E0F6E800E116E0250FC
:1002E000E56E0150E56E0050E56E0550E56E045078
:1002F000E56E0350E56E0850E56E0750E56E06505A
:10030000E56E0B50E56E0A50E56E0950E56E0E5035
:10031000E56E0D50E56E0C50E56E000EE56E160EA6
:10032000E56E7C0EE56E1150E56E1050E56E0F50D7
:10033000E56E63EC12F0150EE126B3EF04F00E0E3D
:10034000016E300E006E800E026E0E0E046E2D0ECB
:10035000036E800E056E0F0E076E5C0E066E800E2D
:10036000086E0F0E0A6E210E096E800E0B6E025083
:10037000E56E0150E56E0050E56E0550E56E0450E7
:10038000E56E0350E56E0850E56E0750E56E0650C9
:10039000E56E000EE56E160EE56E9C0EE56E0B50DA
:1003A000E56E0A50E56E0950E56E63EC12F00F0E33
:1003B000E126B3EF04F00F014751020A03E10F01F8
:1003C000485101E018D00F0E016E210E006E800E14
:1003D000026E000EE56E160EE56EBA0EE56E025068
:1003E000E56E0150E56E0050E56E63EC12F0060E0E
:1003F000E126B3EF04F00F014751030A03E10F01B7
:10040000485101E018D00F0E016E210E006E800ED3
:10041000026E000EE56E160EE56EDA0EE56E025007
:10042000E56E0150E56E0050E56E63EC12F0060ECD
:10043000E126B3EF04F00F014751040A03E10F0175
:10044000485101E091D00F0E016E5C0E006E800EDF
:10045000026E0250E56E0150E56E0050E56E0F0130
:100460004A51E56E0F014951E56E0CEC14F0050E92
:10047000E1260E0E016E2D0E006E800E026E0250F1
:10048000E56E0150E56E0050E56E0F014C51E56ED2
:100490000F014B51E56E0CEC14F0050EE1260F0137
:1004A00053510F01541130E00E0E016E2D0E006EEF
:1004B000800E026E0F0E046E5C0E036E800E056ED3
:1004C0000F0E076E210E066E800E086E0250E56E4E
:1004D0000150E56E0050E56E0550E56E0450E56E86
:1004E0000350E56E000EE56E160EE56EFA0EE56E33
:1004F0000850E56E0750E56E0650E56E63EC12F0AD
:100500000C0EE126B3EF04F00E0E016E2D0E006E00
:10051000800E026E0F0E046E5C0E036E800E056E72
:100520000F0E076E210E066E800E086E0250E56EED
:100530000150E56E0050E56E0550E56E0450E56E25
:100540000350E56E000EE56E170EE56E180EE56EB3
:100550000850E56E0750E56E0650E56E63EC12F04C
:100560000C0EE126B3EF04F00F014751050A03E139
:100570000F01485101E08FD00F0E016E5C0E006E2E
:10058000800E026E0250E56E0150E56E0050E56E81
:100590000F014A51E56E0F014951E56E0CEC14F064
:1005A000050EE1260E0E016E2D0E006E800E026EFF
:1005B0000250E56E0150E56E0050E56E0F014C51A2
:1005C000E56E0F014B51E56E0CEC14F0050EE126C3
:1005D0000F0153510F0154112FE00E0E016E2D0E1D
:1005E000006E800E026E0F0E046E5C0E036E800EA7
:1005F000056E0F0E076E210E066E800E086E0250FD
:10060000E56E0150E56E0050E56E0550E56E045054
:10061000E56E0350E56E000EE56E170EE56E360EC4
:10062000E56E0850E56E0750E56E0650E56E63EC2A
:1006300012F00C0EE12697D10E0E016E2D0E006EFB
:10064000800E026E0F0E046E5C0E036E800E056E41
:100650000F0E076E210E066E800E086E0250E56EBC
:100660000150E56E0050E56E0550E56E0450E56EF4
:100670000350E56E000EE56E170EE56E180EE56E82
:100680000850E56E0750E56E0650E56E63EC12F01B
:100690000C0EE12668D10F014751060A03E10F0154
:1006A000485101E033D00F0143510F01441117E0CD
:1006B0000F0E016E210E006E800E026E000EE56EB2
:1006C000170EE56E540EE56E0250E56E0150E56EB4
:1006D0000050E56E63EC12F0060EE12644D10F0ED9
:1006E000016E210E006E800E026E000EE56E170E7A
:1006F000E56E700EE56E0250E56E0150E56E00503D
:10070000E56E63EC12F0060EE1262DD10F01475184
:10071000070A03E10F01485101E08FD00F0E016E6F
:100720005C0E006E800E026E0250E56E0150E56EAA
:100730000050E56E0F015051E56E0F014F51E56E0F
:100740000CEC14F0050EE1260E0E016E2D0E006E5F
:10075000800E026E0250E56E0150E56E0050E56EAF
:100760000F015251E56E0F015151E56E0CEC14F082
:10077000050EE1260F0153510F0154112FE00E0E0B
:10078000016E2D0E006E800E026E0F0E046E5C0E5A
:10079000036E800E056E0F0E076E210E066E800E24
:1007A000086E0250E56E0150E56E0050E56E055092
:1007B000E56E0450E56E0350E56E000EE56E170E13
:1007C000E56E8C0EE56E0850E56E0750E56E06503E
:1007D000E56E63EC12F00C0EE126C5D00E0E016E34
:1007E0002D0E006E800E026E0F0E046E5C0E036EF8
:1007F000800E056E0F0E076E210E066E800E086EBF
:100800000250E56E0150E56E0050E56E0550E56E54
:100810000450E56E0350E56E000EE56E170EE56EB2
:10082000AA0EE56E0850E56E0750E56E0650E56EBF
:1008300063EC12F00C0EE12696D00F014751080A26
:1008400003E10F01485101E08ED00F0E016E5C0EE6
:10085000006E800E026E0250E56E0150E56E005093
:10086000E56E0F015051E56E0F014F51E56E0CEC36
:1008700014F0050EE1260E0E016E2D0E006E800E98
:10088000026E0250E56E0150E56E0050E56E0F01FC
:100890005251E56E0F015151E56E0CEC14F0050E4E
:1008A000E1260F0153510F0154112FE00E0E016E7E
:1008B0002D0E006E800E026E0F0E046E5C0E036E27
:1008C000800E056E0F0E076E210E066E800E086EEE
:1008D0000250E56E0150E56E0050E56E0550E56E84
:1008E0000450E56E0350E56E000EE56E170EE56EE2
:1008F000C80EE56E0850E56E0750E56E0650E56ED1
:1009000063EC12F00C0EE1262ED00E0E016E2D0EB1
:10091000006E800E026E0F0E046E5C0E036E800E73
:10092000056E0F0E076E210E066E800E086E0250C9
:10093000E56E0150E56E0050E56E0550E56E045021
:10094000E56E0350E56E000EE56E170EE56EAA0E1D
:10095000E56E0850E56E0750E56E0650E56E63ECF7
:1009600012F00C0EE1260F0E016E210E006E800EAD
:10097000026E0250E56E0150E56E0050E56E000E0D
:10098000E56ED8EC12F0040EE126E4CF11F0E4CFCE
:1009900010F0E4CF0FF0E4CF0EF0E4CF0DF0E4CF91
:1009A0000CF0E4CF0BF0E4CF0AF0E4CF09F0E4CF91
:1009B00008F0E4CF07F0E4CF06F0E4CF05F0E4CF91
:1009C00004F0E4CF03F0E4CF02F0E4CF01F0E4CF91
:1009D00000F0E4CFD9FF1200D9CFE5FFE1CFD9FF76
:1009E00000C0E5FF01C0E5FF02C0E5FF03C0E5FF71
:1009F00004C0E5FF05C0E5FF06C0E5FF07C0E5FF51
:100A000008C0E5FF09C0E5FF0AC0E5FF0BC0E5FF30
:100A10000CC0E5FF0DC0E5FF0EC0E5FF0FC0E5FF10
:100A200010C0E5FF11C0E5FF12C0E5FF13C0E5FFF0
:100A300014C0E5FF15C0E5FF16C0E5FF17C0E5FFD0
:100A400018C0E5FF19C0E5FF1AC0E5FF1BC0E5FFB0
:100A50001CC0E5FF1DC0E5FF1EC0E5FF020EDBCF99
:100A600000F0030EDBCF01F0040EDBCF02F0050E29
:100A7000DBCF03F0060EDBCF04F0070EDBCF05F073
:100A8000080EDBCF06F0090EDBCF07F00A0EDBCF36
:100A900008F0096A0A6A02C00DF00D50800A0CE1E4
:100AA00000C039FE01C03AFE02C03BFE0E0E016ED0
:100AB000390E006E800E026E03C0E9FF04C0F3FF22
:100AC000055093EC16F00B6E0B50D8B4BDEF08F048
:100AD0000B50250A02E0A2EF08F00C6A0D6A0E6ABC
:100AE0000F6A106A0A0E116E126A136A146A200ED7
:100AF000156E1668176A2B0E186E032AD8B0042AD2
:100B0000D8B0052A03C0E9FF04C0F3FF055093ECF9
:100B100016F0196E250A15E11950E56E0250E56EC2
:100B20000150E56E0050E56EE4EC11F0040EE12694
:100B3000092AD8B00A2A032AD8B0042AD8B0052A2C
:100B4000BBD71950300A07E1300E156E032AD8B012
:100B5000042AD8B0052A03C0E9FF04C0F3FF0550FA
:100B600093EC16F02D0A07E1010E146E032AD8B09B
:100B7000042AD8B0052A03C0E9FF04C0F3FF0550DA
:100B800093EC16F0200A09E1010E176E200E186E84
:100B9000032AD8B0042AD8B0052A03C0E9FF04C04C
:100BA000F3FF055093EC16F02B0A07E1010E176EC8
:100BB000032AD8B0042AD8B0052A03C0E9FF04C02C
:100BC000F3FF055093EC16F0196E800F4F0F2EE3D4
:100BD0001950800F460F2AE203C019F004C01AF022
:100BE00005C01BF019C0E9FF1AC0F3FF1B5093ECBE
:100BF00016F01C6E800F500F13E31C50800F460F31
:100C00000FE213500A0DF3CF1DF01D501C26D00E1D
:100C10001C24136E192AD8B01A2AD8B01B2AE2D77E
:100C200019C003F01AC004F01BC005F003C0E9FFAF
:100C300004C0F3FF055093EC16F02E0A30E1032AAE
:100C4000D8B0042AD8B0052A166A03C019F004C027
:100C50001AF005C01BF019C0E9FF1AC0F3FF1B50C2
:100C600093EC16F01C6E800F500F13E31C50800F96
:100C7000460F0FE216500A0DF3CF1DF01D501C2633
:100C8000D00E1C24166E192AD8B01A2AD8B01B2AE6
:100C9000E2D719C003F01AC004F01BC005F003C06E
:100CA000E9FF04C0F3FF055093EC16F0196E6C0ACF
:100CB00008E1010E0C6E032AD8B0042AD8B0052A28
:100CC0000AD01950680A07E1010E0E6E032AD8B047
:100CD000042AD8B0052A03C0E9FF04C0F3FF055079
:100CE00093EC16F0750A07E1010E106E032AD8B0D6
:100CF000042AD8B0052A03C0E9FF04C0F3FF055059
:100D000093EC16F0196E730A05E1010E0D6E200EBC
:100D1000156E41D01950780A03E1100E116E3BD0C8
:100D20001950580A05E1100E116E010E126E33D0E3
:100D30001950630A02E1116A2ED019506F0A03E1BB
:100D4000080E116E28D01950660A03E1010E0F6ECD
:100D500022D01950640A1FE01950690A1CE0105093
:100D600005E0FF0E03260422052215D01950E56E7A
:100D70000250E56E0150E56E0050E56EE4EC11F0B6
:100D8000040EE126092AD8B00A2A032AD8B0042A78
:100D9000D8B0052A91D60D5021E00650030F0D6EF4
:100DA000000E0720196E000E08201A6E0DC006F006
:100DB00019C007F01AC008F0FD0E0D26FF0E19220B
:100DC0001A220DC0E9FF19C0F3FF1A501FEC16F0EC
:100DD0000D6EF3CF19F0F4CF1AF000D10F500DE0E3
:100DE000020E0D6E120E196E000E1A6E040E0626FD
:100DF000000E072208221668F1D016680C5023E076
:100E00000650040F0C6E000E07200F6E000E082017
:100E10001B6E0CC006F00FC007F01BC008F0FC0EE4
:100E20000C26FF0E0F221B220CC0E9FF0FC0F3FFA0
:100E30001B50ACEC15F00C6EF3CF0FF0F4CF1BF0A1
:100E4000E9CF1CF06AD00E5032E00650020F0E6E51
:100E5000000E07201D6E000E08201E6E0EC006F04C
:100E60001DC007F01EC008F0FE0E0E26FF0E1D224C
:100E70001E220EC0E9FF1DC0F3FF1E506BEC16F0E2
:100E80000E6E0EC00CF0E86A0EBEFF0E0F6E1B6EEB
:100E90001C6E11500A0A03E11050D8B43ED00C5019
:100EA0000E6E0EC00CF00F6A1B6A1C6A36D006501C
:100EB000020F0E6E000E07201D6E000E08201E6E23
:100EC0000EC006F01DC007F01EC008F0FE0E0E2674
:100ED000FF0E1D221E220EC0E9FF1DC0F3FF1E5093
:100EE0006BEC16F00E6EF3CF1DF00EC00CF01DC0B3
:100EF0000FF0E86A1DBEFF0E1B6E1C6E11500A0A31
:100F000002E110500AE00C500E6E0F501D6E0EC024
:100F10000CF01DC00FF01B6A1C6A0E0E196E210E1C
:100F20000D6E800E1A6E1150D8B440D0105013E0E0
:100F30001150E56E0E0EE56E210EE56E1C50E56E4D
:100F40001B50E56E0F50E56E0C50E56E5AEC0FF03D
:100F5000070EE12612D01150E56E0E0EE56E210E41
:100F6000E56E1C50E56E1B50E56E0F50E56E0C50A3
:100F7000E56EA8EC13F0070EE12617502FE00DC028
:100F8000E9FF19C0F3FF1A5093EC16F02D0A26E082
:100F9000FF0E0D2619221A2218C0E5FF0DC0E9FF29
:100FA00019C0F3FF1A50C9EC16F018D00CC0E5FFB9
:100FB0000DC0E9FF19C0F3FF1A50C9EC16F00D502F
:100FC000010F0C6E000E19200E6E000E1A20E56A3D
:100FD0000CC0E9FF0EC0F3FFC9EC16F00DC00CF019
:100FE00019C00EF01AC00FF013C010F0105011E02D
:100FF0000CC0E9FF0EC0F3FF0F5093EC16F0176E14
:10100000175007E00C2AD8B00E2AD8B00F2A1006C5
:10101000EDD710C013F014501FE109C00CF00AC046
:101020000EF010C00FF00F5011E01550E56E025099
:10103000E56E0150E56E0050E56EE4EC11F0040E33
:10104000E1260C2AD8B00E2A0F06EDD70CC009F005
:101050000EC00AF00FC013F016C00CF00DC00DF05A
:1010600019C00EF01AC00FF009C010F00AC015F038
:101070000DC0E9FF0EC0F3FF0F5093EC16F0166E93
:101080001650D8B440D00CC016F0176A161E171EA2
:101090001650171005E00CC016F00C06165033E081
:1010A0000DC0E9FF0EC0F3FF0F5093EC16F0116E68
:1010B000125010E01150E56E54EC16F0166EE12A55
:1010C000165004E0DF0E1114166E02D011C016F097
:1010D00016C011F01150E56E0250E56E0150E56E3C
:1010E0000050E56EE4EC11F0040EE1260D2AD8B0B4
:1010F0000E2AD8B00F2A102AD8B0152A1350D8B407
:10110000B7D71306B5D710C009F015C00AF01450B0
:101110002DE010C00CF015C00DF013C00EF00E50F5
:1011200021E0200EE56E0250E56E0150E56E0050A4
:10113000E56EE4EC11F0040EE1260C2AD8B00D2A7D
:101140000E06EDD70B50E56E0250E56E0150E56ED0
:101150000050E56EE4EC11F0040EE126092AD8B047
:101160000A2A04D00CC009F00DC00AF0032AD8B036
:10117000042AD8B0052A5CEF05F00AC0F3FF095035
:10118000E4CF1EF0E4CF1DF0E4CF1CF0E4CF1BF061
:10119000E4CF1AF0E4CF19F0E4CF18F0E4CF17F061
:1011A000E4CF16F0E4CF15F0E4CF14F0E4CF13F061
:1011B000E4CF12F0E4CF11F0E4CF10F0E4CF0FF061
:1011C000E4CF0EF0E4CF0DF0E4CF0CF0E4CF0BF061
:1011D000E4CF0AF0E4CF09F0E4CF08F0E4CF07F061
:1011E000E4CF06F0E4CF05F0E4CF04F0E4CF03F061
:1011F000E4CF02F0E4CF01F0E4CF00F0E4CFD9FF78
:1012000012003C4E4F20464C4F41543E0000E8CF68
:10121000E5FFD8CFE5FFE0CFE5FFF3CFE5FFF4CF63
:10122000E5FFE9CFE5FFEACFE5FFFACFE5FFFBCF2A
:10123000E5FFD9CFE5FFE1CFD9FF00C0E5FF01C051
:10124000E5FFF2A45CD01C0ED66E380ED76EF29479
:10125000010E0F01531B06EC00F00F0145510F0169
:1012600046111CE0006A91B2002A010E001A0050DB
:10127000010BE844F46E9150FD0BF410916E006A7E
:1012800091B4002A010E001A0050010BE844E84412
:10129000F46E9150FB0BF410916E02D091929194E8
:1012A000006A0F014751010A04E10F01485101E1B1
:1012B000002A00500DE0016A91B0012A010E011AC6
:1012C0000150010BF46E9150FE0BF410916E01D0A1
:1012D0009190005002E04AEC15F00F014751040ACA
:1012E00003E10F01485109E00F014751050A03E1ED
:1012F0000F01485102E004EC16F0F0907BD1F0A011
:10130000A6D00F014751010A1AE10F01485101E02F
:1013100016D00F0145510F01461109E00F01436B33
:101320000F01446B0F01456B0F01466B05D0020E98
:101330000F01476F0F01486B06EC00F086D00F01DC
:101340004751020A0CE10F01485101E008D0030E99
:101350000F01476F0F01486B06EC00F076D00F01CC
:101360004751030A0CE10F01485101E008D0010E7A
:101370000F01476F0F01486B06EC00F066D00F01BC
:101380004751040A0CE10F01485101E008D0050E55
:101390000F01476F0F01486B06EC00F056D00F01AC
:1013A0004751050A14E10F01485101E010D00F0127
:1013B000416B0F01426B0F014D6B0F014E6B010E24
:1013C0000F01476F0F01486B06EC00F03ED00F0194
:1013D0004751060A17E10F01485101E013D00F01F0
:1013E00043510F01441106E0070E0F01476F0F0133
:1013F000486B05D0010E0F01476F0F01486B06ECDB
:1014000000F023D00F014751070A0CE10F014851AA
:1014100001E008D0080E0F01476F0F01486B06EC82
:1014200000F013D00F014751080A0FE10F01485196
:1014300001E00BD00F01416B0F01426B010E0F0158
:10144000476F0F01486B06EC00F0F090D3D0006AB4
:10145000F0B4002A0050010A01E0CCD00F0147513E
:10146000010A1AE10F01485101E016D00F01456B46
:101470000F01466B0F0143510F01441105E00F01AD
:10148000436B0F01446B05D0010E0F01436F0F0139
:10149000446B06EC00F0ADD00F014751020A0CE19D
:1014A0000F01485101E008D0040E0F01476F0F01F2
:1014B000486B06EC00F09DD00F014751030A0CE188
:1014C0000F01485101E008D0060E0F01476F0F01D0
:1014D000486B06EC00F08DD00F014751040A19E16A
:1014E0000F01485101E015D00F01492B02E30F0114
:1014F0004A2B0F014A51800F800F03E1180E0F0194
:10150000495D04E30F01496B0F014A6B06EC00F0E3
:1015100070D00F014751050A19E10F01485101E050
:1015200015D00F014B2B02E30F014C2B0F014C5137
:10153000800F800F03E13C0E0F014B5D04E30F01B0
:101540004B6B0F014C6B06EC00F053D00F01475171
:10155000060A16E10F01485101E012D00F01435174
:101560000F01441105E00F01436B0F01446B05D0DF
:10157000010E0F01436F0F01446B06EC00F039D0F0
:101580000F014751070A19E10F01485101E015D039
:101590000F014F2B02E30F01502B0F015051800F11
:1015A000800F03E1180E0F014F5D04E30F014F6B35
:1015B0000F01506B06EC00F01CD00F014751080AD8
:1015C00018E10F01485101E014D00F01512B02E343
:1015D0000F01522B0F015251800F800F03E13C0E7F
:1015E0000F01515D04E30F01516B0F01526B06ECCB
:1015F00000F0F094E4CF01F0E4CF00F0E4CFD9FFA5
:10160000E4CFFBFFE4CFFAFFE4CFEAFFE4CFE9FF4A
:10161000E4CFF4FFE4CFF3FFE4CFE0FFE4CFD8FF63
:10162000E4CFE8FF1000205354415254494E472E56
:101630002E2E2020202000002021212025733A2555
:10164000733A2573202121202057414B45205550C6
:1016500021204455444521200000202020202573CE
:101660003A25733A2573202020202057414B4520EE
:1016700055502120445544452120000020202020A1
:1016800025733A25733A25732020202020414C41B0
:10169000524D20205B25733A25735D0020202020C9
:1016A00025733A25733A25732020202020202041DD
:1016B0004C41524D3A204F46460020202020202009
:1016C0004D454E5520202020202020204348414ECB
:1016D000474520434C4F434B3F00202020202020F3
:1016E0004D454E5520202020202020204348414EAB
:1016F000474520414C41524D3F0053455420434CF7
:101700004F434B3A202020202020202020205B2502
:10171000735D3A202573000053455420434C4F43DA
:101720004B3A20202020202020202020202573201C
:101730003A202573000053455420434C4F434B3A05
:1017400020202020202020202020202573203A5BEC
:1017500025735D0053455420414C41524D3A2020A1
:10176000202020202020202020205B4F4E205D00C4
:1017700053455420414C41524D3A202020202020F6
:101780002020202020205B4F46465D0053455420FA
:10179000414C41524D3A2020202020202020202062
:1017A0005B25735D3A202573000053455420414C5E
:1017B00041524D3A2020202020202020202020258A
:1017C00073203A202573000053455420414C415268
:1017D0004D3A20202020202020202020202573206A
:1017E0003A5B25735D003025640025640000D9CF85
:1017F000E5FFE1CFD9FF00C0E5FF01C0E5FF02C072
:10180000E5FF03C0E5FF04C0E5FF05C0E5FF06C036
:10181000E5FF07C0E5FF08C0E5FF020EE56E000E1C
:10182000E56E7BEC15F0020EE126480E006E0D0E03
:10183000016E026A036A00C004F001C005F002C034
:1018400006F003C007F0FF0E0026FF0E0122FF0E78
:101850000222FF0E03220450051006100710EBE1D0
:10186000006A00C001F0026A000E025C02E1100E84
:10187000015CD8B057D0000E0024016E026A0F0E32
:10188000022201C0E9FF02C0EAFFEFCF01F00150E0
:1018900019E100C001F001C002F0036A000E035C10
:1018A00002E1100E025C0EE2000E0124026E036AD9
:1018B0000F0E032202C0E9FF03C0EAFF200EEF6E05
:1018C000012AE9D7000E0024016E026A0F0E0222DF
:1018D00001C0E9FF02C0EAFFEFCF01F00150E56E61
:1018E000010EE56E7BEC15F0020EE126550E016E41
:1018F000026A036A046A01C005F002C006F003C070
:1019000007F004C008F0FF0E0126FF0E0222FF0EB2
:101910000322FF0E04220550061007100810EBE109
:10192000002A9FD7C00EE56E000EE56E7BEC15F029
:10193000020EE126550E006E016A026A036A00C0BB
:1019400004F001C005F002C006F003C007F0FF0E6E
:101950000026FF0E0122FF0E0222FF0E032204507A
:10196000051006100710EBE1100E006E00C001F02C
:10197000026A000E025C02E1200E015CD8B057D072
:10198000000E0024016E026A0F0E022201C0E9FF60
:1019900002C0EAFFEFCF01F0015019E100C001F0F1
:1019A00001C002F0036A000E035C02E1200E025C3B
:1019B0000EE2000E0124026E036A0F0E032202C023
:1019C000E9FF03C0EAFF200EEF6E012AE9D7000EFF
:1019D0000024016E026A0F0E022201C0E9FF02C05C
:1019E000EAFFEFCF01F00150E56E010EE56E7BECF2
:1019F00015F0020EE126550E016E026A036A046AB2
:101A000001C005F002C006F003C007F004C008F0F2
:101A1000FF0E0126FF0E0222FF0E0322FF0E0422FC
:101A20000550061007100810EBE1002A9FD7E4CFFD
:101A300008F0E4CF07F0E4CF06F0E4CF05F0E4CF00
:101A400004F0E4CF03F0E4CF02F0E4CF01F0E4CF00
:101A500000F0E4CFD9FF1200D9CFE5FFE1CFD9FFE5
:101A600000C0E5FF01C0E5FF02C0E5FF03C0E5FFE0
:101A700004C0E5FF05C0E5FF06C0E5FF07C0E5FFC0
:101A800008C0E5FF000EE56E200EE56E200EE56E47
:101A90000F0EE56E000EE56E43EC13F0050EE12629
:101AA0000F01206B90909092966A999299949990D8
:101AB000A00E006E090E016E010E026E036A00C0D8
:101AC00004F001C005F002C006F003C007F0FF0EED
:101AD0000026FF0E0122FF0E0222FF0E03220450F9
:101AE000051006100710EBE19094030E8D6E0000B8
:101AF0000000006A00C001F0026A000E025C02E110
:101B0000030E015C39E29080110E016E026A036AD5
:101B1000046A01C005F002C006F003C007F004C06B
:101B200008F0FF0E0126FF0E0222FF0E0322FF0E19
:101B300004220550061007100810EBE19090480EA3
:101B4000016E0D0E026E036A046A01C005F002C048
:101B500006F003C007F004C008F0FF0E0126FF0ED8
:101B60000222FF0E0322FF0E04220550061007106A
:101B70000810EBE1002ABED7380EE56E000EE56EC8
:101B80007BEC15F0020EE126550E006E016A026A2A
:101B9000036A00C004F001C005F002C006F003C0F3
:101BA00007F0FF0E0026FF0E0122FF0E0222FF0E9D
:101BB00003220450051006100710EBE1060EE56E37
:101BC000000EE56E7BEC15F0020EE126550E006E60
:101BD000016A026A036A00C004F001C005F002C095
:101BE00006F003C007F0FF0E0026FF0E0122FF0ED5
:101BF0000222FF0E03220450051006100710EBE12D
:101C00000C0EE56E000EE56E7BEC15F0020EE12683
:101C1000550E006E016A026A036A00C004F001C03A
:101C200005F002C006F003C007F0FF0E0026FF0E0D
:101C30000122FF0E0222FF0E03220450051006109F
:101C40000710EBE1010EE56E000EE56E7BEC15F082
:101C5000020EE126480E006E0D0E016E026A036A46
:101C600000C004F001C005F002C006F003C007F098
:101C7000FF0E0026FF0E0122FF0E0222FF0E03229E
:101C80000450051006100710EBE1E4CF08F0E4CF94
:101C900007F0E4CF06F0E4CF05F0E4CF04F0E4CFA2
:101CA00003F0E4CF02F0E4CF01F0E4CF00F0E4CFA2
:101CB000D9FF1200D9CFE5FFE1CFD9FF00C0E5FF82
:101CC00001C0E5FF02C0E5FF03C0E5FF04C0E5FF7A
:101CD00005C0E5FF06C0E5FF07C0E5FF08C0E5FF5A
:101CE00009C0E5FF0AC0E5FF0BC0E5FF0CC0E5FF3A
:101CF0000DC0E5FF0EC0E5FF0FC0E5FF10C0E5FF1A
:101D000011C0E5FF12C0E5FF13C0E5FF14C0E5FFF9
:101D100015C0E5FF020EDBCF00F0030EDBCF01F0B4
:101D2000040EDBCF02F0050EDBCF03F0060EDBCF97
:101D300004F0070EDBCF05F0080EDBCF06F0090E2E
:101D4000DBCF07F000C008F001C009F002C00AF0C4
:101D500003C00BF004C00CF005C00DF006C00EF07F
:101D600007C00FF006500710D8B43ED003C010F0E3
:101D700004C011F005C012F006C013F007C014F043
:101D8000FF0E1326D8A01406135014101DE010C027
:101D9000E9FF11C0F3FF125093EC16F0156E102AF4
:101DA000D8B0112AD8B0122A15C0E5FF00C0E9FF4B
:101DB00001C0F3FF0250C9EC16F0002AD8B0012A86
:101DC000D8B0022A1550DCE110C00BF011C00CF0A5
:101DD00012C00DF000C008F001C009F002C00AF006
:101DE00013C00EF014C00FF00E500F1027E1065074
:101DF000071009E0000EE56E08C0E9FF09C0F3FF17
:101E00000A50C9EC16F00BC000F00CC001F00DC078
:101E100002F000C0E9FF01C0F3FF025093EC16F09E
:101E2000066E002AD8B0012AD8B0022A0650F1E185
:101E300000C00BF001C00CF002C00DF003500B5CB1
:101E4000036E04500C58046EFF0E0326D8A004063F
:101E500004C0F3FF0350E4CF15F0E4CF14F0E4CF57
:101E600013F0E4CF12F0E4CF11F0E4CF10F0E4CFA0
:101E70000FF0E4CF0EF0E4CF0DF0E4CF0CF0E4CFA0
:101E80000BF0E4CF0AF0E4CF09F0E4CF08F0E4CFA0
:101E900007F0E4CF06F0E4CF05F0E4CF04F0E4CFA0
:101EA00003F0E4CF02F0E4CF01F0E4CF00F0E4CFA0
:101EB000D9FF1200D9CFE5FFE1CFD9FF00C0E5FF80
:101EC00001C0E5FF02C0E5FF03C0E5FF04C0E5FF78
:101ED00005C0E5FF06C0E5FF07C0E5FF08C0E5FF58
:101EE00009C0E5FF0AC0E5FF0BC0E5FF0CC0E5FF38
:101EF0000DC0E5FF0EC0E5FF0FC0E5FF020EDBCF12
:101F000000F0030EDBCF01F0040EDBCF02F0050E74
:101F1000DBCF03F0060EDBCF04F0070EDBCF05F0BE
:101F2000080EDBCF06F0200E076E086A06C009F027
:101F30000A6A0B6A0C6AE56AE56AE56A0950E56EA9
:101F40000350E56E0250E56E0150E56E0050E56EFF
:101F500036EC10F00D6E080EE126300E0D263A0E0E
:101F60000D5C02E3270E0D26FF0E0726D8A00806FB
:101F7000000E07240E6E0E0E08200F6E0EC0E9FF35
:101F80000FC0EAFF0DC0EFFF0C50E56E0B50E56E81
:101F90000A50E56E0950E56E0350E56E0250E56E9D
:101FA0000150E56E0050E56E57EC11F0006EF3CF76
:101FB00001F0F4CF02F0E9CF03F0080EE126005063
:101FC000011002100310D8A4B1D707C000F008C058
:101FD00001F004C002F005C003F000C004F001C02D
:101FE00005F0002AD8B0012A000E04260E0E0522A4
:101FF00004C0E9FF05C0EAFFEFCF04F002C0E9FF2B
:1020000003C0EAFF04C0EFFF022AD8B0032A000E83
:10201000015C02E1200E005CE0E302C0E9FF03C0C6
:10202000EAFF000EEF6AE4CF0FF0E4CF0EF0E4CF4A
:102030000DF0E4CF0CF0E4CF0BF0E4CF0AF0E4CFE6
:1020400009F0E4CF08F0E4CF07F0E4CF06F0E4CFE6
:1020500005F0E4CF04F0E4CF03F0E4CF02F0E4CFE6
:1020600001F0E4CF00F0E4CFD9FF1200D9CFE5FFB3
:10207000E1CFD9FF00C0E5FF01C0E5FF02C0E5FFE9
:1020800003C0E5FF04C0E5FF05C0E5FF06C0E5FFAE
:1020900007C0E5FF08C0E5FF09C0E5FF0AC0E5FF8E
:1020A000020EDBCF00F0030EDBCF01F0040EDBCF1E
:1020B00002F0050EDBCF03F0060EDBCF04F0070EB7
:1020C000DBCF05F0080EDBCF06F0090EDBCF07F003
:1020D000086A096A0744010B0A6E0AB01BD0045053
:1020E00004260536063607360750035C08E106501D
:1020F000025C05E10550015C02E10450005C06E26F
:10210000D890073206320532043204D0092A09C0B9
:1021100008F0E0D70750035C08E10650025C05E1D7
:102120000550015C02E10450005C08E30450005ECD
:102130000550015A0650025A0750035AD8900732E8
:1021400006320532043208C009F008060950E2E1FF
:1021500003C0E9FF02C0F4FF01C0F3FF0050E4CF69
:102160000AF0E4CF09F0E4CF08F0E4CF07F0E4CFC1
:1021700006F0E4CF05F0E4CF04F0E4CF03F0E4CFC1
:1021800002F0E4CF01F0E4CF00F0E4CFD9FF120079
:10219000D9CFE5FFE1CFD9FF00C0E5FF01C0E5FFE2
:1021A00002C0E5FF03C0E5FF04C0E5FF05C0E5FF91
:1021B000020EDBCF00F0030EDBCF01F0040EDBCF0D
:1021C00002F0036A046A0A0EE56E0F0EE56E560E03
:1021D000E56E0450E56E0350E56E0250E56E015069
:1021E000E56E5AEC0FF0070EE126016A0F0E036E42
:1021F000560E026E800E046E0450E56E0350E56EBE
:102200000250E56E0AEC15F0026EF3CF03F0030EF8
:10221000E12601C004F0056A0550800FF36E0350FB
:10222000800FF35C02E10250045C1CE200C002F08B
:10223000002A036A000E02260F0E0322560E012406
:10224000046E056A0F0E052204C0E9FF05C0EAFF0F
:10225000EFCF04F002C0E9FF03C0EAFF04C0EFFFC4
:10226000012AC4D700C001F0026A000E025C02E13C
:10227000200E015C0BE2016A000E00260F0E012207
:1022800000C0E9FF01C0EAFF000EEF6EF7EC0BF0B3
:10229000E4CF05F0E4CF04F0E4CF03F0E4CF02F0A4
:1022A000E4CF01F0E4CF00F0E4CFD9FF1200D9CFA2
:1022B000E5FFE1CFD9FF00C0E5FF01C0E5FF02C0A7
:1022C000E5FF03C0E5FF04C0E5FF05C0E5FF06C06C
:1022D000E5FF07C0E5FF08C0E5FF09C0E5FF0AC04C
:1022E000E5FF0BC0E5FF0CC0E5FF0DC0E5FF020EEA
:1022F000DBCF00F0030EDBCF01F0040EDBCF02F0EA
:10230000050EDBCF03F0060EDBCF04F0070EDBCFAC
:1023100005F0080EDBCF06F0090EDBCF07F0086AE8
:10232000096A0A6A0B6A200E0C6E0344010B0D6EDB
:10233000010E0D16005000260136023603360850F5
:10234000082609360A360B360D50D8A408800750E7
:102350000B5C08E106500A5C05E10550095C02E1EE
:102360000450085C09E30450085E0550095A065001
:102370000A5A07500B5A00800C2ED7D703C0E9FF2A
:1023800002C0F4FF01C0F3FF0050E4CF0DF0E4CF32
:102390000CF0E4CF0BF0E4CF0AF0E4CF09F0E4CF87
:1023A00008F0E4CF07F0E4CF06F0E4CF05F0E4CF87
:1023B00004F0E4CF03F0E4CF02F0E4CF01F0E4CF87
:1023C00000F0E4CFD9FF1200D9CFE5FFE1CFD9FF6C
:1023D00000C0E5FF01C0E5FF02C0E5FF03C0E5FF67
:1023E00004C0E5FF05C0E5FF06C0E5FF07C0E5FF47
:1023F000020EDBCF00F0030EDBCF01F0040EDBCFCB
:1024000002F0050EDBCF03F002C006F00650046EAA
:10241000800A28E100C0E9FF01C0F3FF02501FEC71
:1024200016F0056EF3CF06F0F4CF07F003C0E5FF1A
:1024300005C0E9FF06C0F3FF0750C9EC16F0052AF6
:10244000D8B0062AD8B0072A05C0E5FF06C0F4FFB9
:1024500007C0F6FF00C0E9FF01C0F3FF0250A4EC83
:1024600016F01ED004AA1CD0200E041A045004E159
:102470000350DAEC16F014D00450010A04E10350C2
:1024800002EC00F00DD004500F0A04E10350E1EC1F
:1024900016F006D004500E0A03E10350DEEC16F0ED
:1024A000E4CF07F0E4CF06F0E4CF05F0E4CF04F08A
:1024B000E4CF03F0E4CF02F0E4CF01F0E4CF00F08A
:1024C000E4CFD9FF1200D9CFE5FFE1CFD9FF00C09B
:1024D000E5FF01C0E5FF02C0E5FF03C0E5FF04C062
:1024E000E5FF05C0E5FF050ED924006E000EDA20D9
:1024F000016E030E0026D8B0012A020EDBCF03F0D6
:10250000030EDBCF04F0040EDBCF05F0800EE56E8A
:102510000150E56E0050E56E070EDBCFE5FF060EBD
:10252000DBCFE5FF050EDBCFE5FF0550E56E045080
:10253000E56E0350E56EECEC04F0006EF3CF01F0B5
:10254000090EE12606C0E5FF07C0E5FF08C0E5FF6C
:10255000020EDBCF06F0030EDBCF07F0040EDBCF5D
:1025600008F000500624026E01500720036EE86A4E
:102570000820E4CF08F0E4CF07F0E4CF06F0E56AE6
:1025800002C0E9FF03C0F3FFC9EC16F001C0F3FF7E
:102590000050E4CF05F0E4CF04F0E4CF03F0E4CF43
:1025A00002F0E4CF01F0E4CF00F0E4CFD9FF120055
:1025B000D9CFE5FFE1CFD9FF00C0E5FF01C0E5FFBE
:1025C00002C0E5FF03C0E5FF04C0E5FF05C0E5FF6D
:1025D00006C0E5FF07C0E5FF020EDBCF00F0030EEB
:1025E000DBCF01F0040EDBCF02F0050EDBCF03F0F2
:1025F0000350E56E0250E56E0150E56E0AEC15F0F1
:10260000046EF3CF05F0030EE126042A00502008E3
:10261000056E066A000E00260F0E06220650066E94
:102620000050006E800E076E0550045C02E305C08A
:1026300004F0056A0550E56E0450E56E0350E56E42
:102640000250E56E0150E56E0750E56E0650E56EEE
:102650000050E56E5AEC0EF0080EE126F7EC0BF098
:10266000E4CF07F0E4CF06F0E4CF05F0E4CF04F0C8
:10267000E4CF03F0E4CF02F0E4CF01F0E4CF00F0C8
:10268000E4CFD9FF1200D9CFE5FFE1CFD9FF00C0D9
:10269000E5FF01C0E5FF02C0E5FF03C0E5FF04C0A0
:1026A000E5FF05C0E5FF06C0E5FF07C0E5FF08C080
:1026B000E5FF09C0E5FF020EDBCF00F0030EDBCF24
:1026C00001F0040EDBCF02F0050EDBCF03F0060EA7
:1026D000DBCF04F00150066E0050056E800E076ED1
:1026E00003C008F004C009F0FF0E0326D8A00406BA
:1026F000085009100FE002C0E5FF05C0E9FF06C061
:10270000F3FF0750C9EC16F0052AD8B0062AD8B056
:10271000072AE6D7800E026E02C0F4FF01C0F3FF65
:102720000050E4CF09F0E4CF08F0E4CF07F0E4CFA5
:1027300006F0E4CF05F0E4CF04F0E4CF03F0E4CFFB
:1027400002F0E4CF01F0E4CF00F0E4CFD9FF1200B3
:10275000D9CFE5FFE1CFD9FF00C0E5FF01C0E5FF1C
:1027600002C0E5FF03C0E5FF04C0E5FF05C0E5FFCB
:1027700006C0E5FF020EDBCF00F0030EDBCF01F059
:10278000040EDBCF02F0050EDBCF03F0060EDBCF2D
:1027900004F0070EDBCF05F0080EDBCF06F0D88083
:1027A00003AED89016E306500A0A13E104C0E9FF0D
:1027B00005C0EAFF2D0EEF6E042AD8B0052A031ECD
:1027C000021E011E006C05E1012A03E1022AD8B4B1
:1027D000032A0650E56E0550E56E0450E56E035081
:1027E000E56E0250E56E0150E56E0050E56E5AEC64
:1027F0000FF0070EE126E4CF06F0E4CF05F0E4CFBA
:1028000004F0E4CF03F0E4CF02F0E4CF01F0E4CF32
:1028100000F0E4CFD9FF1200D9CFE5FFE1CFD9FF17
:1028200000C0E5FF01C0E5FF02C0E5FF03C0E5FF12
:1028300004C0E5FF020EDBCF00F0030EDBCF01F09A
:10284000040EDBCF02F0050EDBCF03F0060EDBCF6C
:1028500004F00150800F800F02E10A0E005C15E2C7
:102860000150E56E0050E56E000EE56E170EE56E48
:10287000E60EE56E0450E56E0350E56E0250E56E1F
:1028800063EC12F0080EE12614D00150E56E005002
:10289000E56E000EE56E170EE56EEA0EE56E04506D
:1028A000E56E0350E56E0250E56E63EC12F0080E23
:1028B000E126E4CF04F0E4CF03F0E4CF02F0E4CF6C
:1028C00001F0E4CF00F0E4CFD9FF1200D9CFE5FF4B
:1028D000E1CFD9FF00C0E5FF01C0E5FF02C0E5FF81
:1028E00003C0E5FF04C0E5FF05C0E5FF06C0E5FF46
:1028F00007C0E5FF010EE56E000EE56E7BEC15F0FE
:10290000020EE126480E006E0D0E016E026A036A89
:1029100000C004F001C005F002C006F003C007F0DB
:10292000FF0E0026FF0E0122FF0E0222FF0E0322E1
:102930000450051006100710EBE1000EE56E200EA6
:10294000E56E200EE56E0F0EE56E000EE56E43ECB3
:1029500013F0050EE126E4CF07F0E4CF06F0E4CF54
:1029600005F0E4CF04F0E4CF03F0E4CF02F0E4CFCD
:1029700001F0E4CF00F0E4CFD9FF1200A60EF66E0E
:102980002D0EF76E000EF86E0900F550056E090069
:10299000F550066E055002E106503BE00900F55087
:1029A000006E0900F550016E0900F550026E090035
:1029B0000900F550E96E0900F550EA6E09000900BA
:1029C0000900F550036E0900F550046E0900090076
:1029D000F6CF07F0F7CF08F0F8CF09F000C0F6FF08
:1029E00001C0F7FF02C0F8FF035002E1045007E006
:1029F0000900F550EE6E0306F8E20406F9D707C0A9
:102A0000F6FF08C0F7FF09C0F8FF0506C4E2060696
:102A1000C5D71200D9CFE5FFE1CFD9FF00C0E5FF50
:102A200001C0E5FF02C0E5FF03C0E5FF04C0E5FF0C
:102A300005C0E5FF020EDBCF00F0030EDBCF01F097
:102A4000040EDBCF02F0036A046A00C0E9FF01C094
:102A5000F3FF025093EC16F0056E002AD8B0012A5D
:102A6000D8B0022A055004E0032AD8B0042AEDD7D2
:102A700004C0F3FF0350E4CF05F0E4CF04F0E4CF4B
:102A800003F0E4CF02F0E4CF01F0E4CF00F0E4CFB4
:102A9000D9FF1200D9CFE5FFE1CFD9FF0F01435194
:102AA0000F01441125E00F0141510F01421120E1B6
:102AB0000F0149510F014F1905E10F014A510F0153
:102AC000501901E015D00F014B510F01511905E1CB
:102AD0000F014C510F01521901E00AD0010E0F01F4
:102AE000456F0F01466B010E0F01416F0F01426BE5
:102AF000E4CFD9FF1200D9CFE5FFE1CFD9FF00C065
:102B0000E5FF01C0E5FF020EDBCF00F0030EDBCFD7
:102B100001F0966A9994999290920050010BE844C2
:102B2000E844F46E9050FB0BF410906E01C08DFFE2
:102B30000000000090800000000000000000000085
:102B400000000000000000009090E4CF01F0E4CF0E
:102B500000F0E4CFD9FF1200E8AE0AD0F3CFEAFFCD
:102B6000EE50EECFF3FFEECFF4FFEECFE9FF120011
:102B7000E8BC11D0E9CFF6FFF3CFF7FFF86E0900FC
:102B8000F5500900F5CFF3FF0900F5CFF4FF090078
:102B9000F5CFE9FF12001200D9CFE5FFE1CFD9FF51
:102BA0000F01492B02E30F014A2B0F014A51800FFD
:102BB000800F03E1180E0F01495D08E30F01496B17
:102BC0000F014A6B0F01416B0F01426BE4CFD9FF3C
:102BD0001200D9CFE5FFE1CFD9FF0F014B2B02E364
:102BE0000F014C2B0F014C51800F800F03E13C0E65
:102BF0000F014B5D06E30F014B6B0F014C6BCCECEF
:102C000015F0E4CFD9FF1200D9CFE5FFE1CFD9FF0E
:102C10000F014D2B02E30F014E2B0F014E51800F80
:102C2000800F03E13C0E0F014D5D06E30F014D6B7C
:102C30000F014E6BE9EC15F0E4CFD9FF1200E8AEBE
:102C400008D0F3CFEAFFEE50EECFF3FFEECFF4FF64
:102C50001200E8BC0ED0E9CFF6FFF3CFF7FFF86E15
:102C60000900F5500900F5CFF3FF0900F5CFF4FF97
:102C70001200120081EC16F09A909A929A94D08EDB
:102C8000F19AF28EF086F090F08AF0942CEC0DF030
:102C9000040E0F01476F0F01486B010E0F01531B0C
:102CA00006EC00F0D58E1200D9CFE5FFE1CFD9FFB9
:102CB00000C0E5FF020EDBCF00F0610E005C05E313
:102CC0007B0E005C02E2010E01D0E86AE4CF00F066
:102CD000E4CFD9FF1200E8AE06D0F3CFEAFFEE5002
:102CE000EECFF3FF1200E8BC0BD0E9CFF6FFF3CF35
:102CF000F7FFF86E0900F5500900F5CFF3FF120059
:102D00001200D9CFE5FFE1CFD9FFD59CD59AF28A41
:102D1000D596D584D582D5901C0ED66E380ED76E3A
:102D2000E4CFD9FF1200E8AE04D0F3CFEAFFEE50B3
:102D30001200E8BC08D0E9CFF6FFF3CFF7FFF86E3A
:102D40000900F55012001200E8AE09D0F3CFEAFFF7
:102D5000E4CFEEFFF4CFEEFFF6CFEEFF1200E8ACCB
:102D60001200120017EEFFF027EEFFF0F86AA68EB1
:102D7000A69CBEEC14F03AEC16F0FFD70000000061
:102D80000000000000000000000000000000010042
:102D90000000E8AE05D0F3CFEAFFE4CFEEFF12006B
:102DA000E8AC1200120001007C2D0000410F000071
:102DB00015000000ACA2FED7AD6E1200E8CF7FFF79
:042DC00012001200EB
:00000001FF
