:020000040000FA
:10000000A6EF0EF0C96E12008DEF0AF0D9CFE5FF12
:10001000E1CFD9FF00C0E5FF01C0E5FF02C0E5FF69
:1000200003C0E5FF04C0E5FF05C0E5FF06C0E5FF2E
:1000300007C0E5FF08C0E5FF09C0E5FF0AC0E5FF0E
:100040000BC0E5FF0CC0E5FF0DC0E5FF0EC0E5FFEE
:100050000FC0E5FF10C0E5FF11C0E5FF12C0E5FFCE
:1000600013C0E5FF14C0E5FF15C0E5FF16C0E5FFAE
:1000700017C0E5FF18C0E5FF19C0E5FF1AC0E5FF8E
:100080001BC0E5FF1CC0E5FF1DC0E5FF1EC0E5FF6E
:10009000020EDBCF00F0030EDBCF01F0040EDBCF4E
:1000A00002F0050EDBCF03F0060EDBCF04F0070EE7
:1000B000DBCF05F0080EDBCF06F0090EDBCF07F033
:1000C0000A0EDBCF08F0096A0A6A02C00DF00D5073
:1000D000800A0CE100C054FF01C055FF02C056FF6A
:1000E0000F0E016E540E006E800E026E03C0E9FF0B
:1000F00004C0F3FF05505BEC0EF00B6E0B50D8B450
:10010000D7EF03F00B50250A02E0BCEF03F00C6AB6
:100110000D6A0E6A0F6A106A0A0E116E126A136A6D
:10012000146A200E156E1668176A2B0E186E032AB5
:10013000D8B0042AD8B0052A03C0E9FF04C0F3FFF1
:1001400005505BEC0EF0196E250A15E11950E56EAD
:100150000250E56E0150E56E0050E56E0EEC0AF0BF
:10016000040EE126092AD8B00A2A032AD8B0042AA4
:10017000D8B0052ABBD71950300A07E1300E156EEA
:10018000032AD8B0042AD8B0052A03C0E9FF04C066
:10019000F3FF05505BEC0EF02D0A07E1010E146E23
:1001A000032AD8B0042AD8B0052A03C0E9FF04C046
:1001B000F3FF05505BEC0EF0200A09E1010E176E0B
:1001C000200E186E032AD8B0042AD8B0052A03C01E
:1001D000E9FF04C0F3FF05505BEC0EF02B0A07E1CA
:1001E000010E176E032AD8B0042AD8B0052A03C01E
:1001F000E9FF04C0F3FF05505BEC0EF0196E800FB1
:100200004F0F2EE31950800F460F2AE203C019F05A
:1002100004C01AF005C01BF019C0E9FF1AC0F3FFB3
:100220001B505BEC0EF01C6E800F500F13E31C5044
:10023000800F460F0FE213500A0DF3CF1DF01D5033
:100240001C26D00E1C24136E192AD8B01A2AD8B036
:100250001B2AE2D719C003F01AC004F01BC005F036
:1002600003C0E9FF04C0F3FF05505BEC0EF02E0A5B
:1002700030E1032AD8B0042AD8B0052A166A03C090
:1002800019F004C01AF005C01BF019C0E9FF1AC02C
:10029000F3FF1B505BEC0EF01C6E800F500F13E34E
:1002A0001C50800F460F0FE216500A0DF3CF1DF0C1
:1002B0001D501C26D00E1C24166E192AD8B01A2ADE
:1002C000D8B01B2AE2D719C003F01AC004F01BC033
:1002D00005F003C0E9FF04C0F3FF05505BEC0EF02E
:1002E000196E6C0A08E1010E0C6E032AD8B0042ABC
:1002F000D8B0052A0AD01950680A07E1010E0E6E1F
:10030000032AD8B0042AD8B0052A03C0E9FF04C0E4
:10031000F3FF05505BEC0EF0750A07E1010E106E5D
:10032000032AD8B0042AD8B0052A03C0E9FF04C0C4
:10033000F3FF05505BEC0EF0196E730A05E1010E38
:100340000D6E200E156E41D01950780A03E1100E83
:10035000116E3BD01950580A05E1100E116E010EB6
:10036000126E33D01950630A02E1116A2ED019506F
:100370006F0A03E1080E116E28D01950660A03E1D6
:10038000010E0F6E22D01950640A1FE01950690A3D
:100390001CE0105005E0FF0E03260422052215D0B4
:1003A0001950E56E0250E56E0150E56E0050E56EA5
:1003B0000EEC0AF0040EE126092AD8B00A2A032A14
:1003C000D8B0042AD8B0052A91D60D5021E00650A5
:1003D000030F0D6E000E0720196E000E08201A6E16
:1003E0000DC006F019C007F01AC008F0FD0E0D266A
:1003F000FF0E19221A220DC0E9FF19C0F3FF1A508F
:10040000E9EC0DF00D6EF3CF19F0F4CF1AF000D136
:100410000F500DE0360E0D6E080E196E000E1A6E9E
:10042000040E0626000E072208221668F1D0166870
:100430000C5023E00650040F0C6E000E07200F6EC8
:10044000000E08201B6E0CC006F00FC007F01BC08A
:1004500008F0FC0E0C26FF0E0F221B220CC0E9FF39
:100460000FC0F3FF1B50C9EC0DF00C6EF3CF0FF073
:10047000F4CF1BF0E9CF1CF06AD00E5032E00650EA
:10048000020F0E6E000E07201D6E000E08201E6E5D
:100490000EC006F01DC007F01EC008F0FE0E0E26AE
:1004A000FF0E1D221E220EC0E9FF1DC0F3FF1E50CD
:1004B0001BEC0EF00E6E0EC00CF0E86A0EBEFF0EC6
:1004C0000F6E1B6E1C6E11500A0A03E11050D8B457
:1004D0003ED00C500E6E0EC00CF00F6A1B6A1C6AE8
:1004E00036D00650020F0E6E000E07201D6E000E55
:1004F00008201E6E0EC006F01DC007F01EC008F0DA
:10050000FE0E0E26FF0E1D221E220EC0E9FF1DC08C
:10051000F3FF1E501BEC0EF00E6EF3CF1DF00EC05D
:100520000CF01DC00FF0E86A1DBEFF0E1B6E1C6EA6
:1005300011500A0A02E110500AE00C500E6E0F50E2
:100540001D6E0EC00CF01DC00FF01B6A1C6A0F0E52
:10055000196E420E0D6E800E1A6E1150D8B440D036
:10056000105013E01150E56E0F0EE56E420EE56E71
:100570001C50E56E1B50E56E0F50E56E0C50E56E9D
:1005800084EC07F0070EE12612D01150E56E0F0E35
:10059000E56E420EE56E1C50E56E1B50E56E0F5089
:1005A000E56E0C50E56E50EC0CF0070EE12617508E
:1005B0002FE00DC0E9FF19C0F3FF1A505BEC0EF0FD
:1005C0002D0A26E0FF0E0D2619221A2218C0E5FF7B
:1005D0000DC0E9FF19C0F3FF1A50B2EC0EF018D0AD
:1005E0000CC0E5FF0DC0E9FF19C0F3FF1A50B2ECD3
:1005F0000EF00D50010F0C6E000E19200E6E000E45
:100600001A20E56A0CC0E9FF0EC0F3FFB2EC0EF051
:100610000DC00CF019C00EF01AC00FF013C010F08E
:10062000105011E00CC0E9FF0EC0F3FF0F505BEC5F
:100630000EF0176E175007E00C2AD8B00E2AD8B06B
:100640000F2A1006EDD710C013F014501FE109C097
:100650000CF00AC00EF010C00FF00F5011E0155052
:10066000E56E0250E56E0150E56E0050E56E0EEC51
:100670000AF0040EE1260C2AD8B00E2A0F06EDD798
:100680000CC009F00EC00AF00FC013F016C00CF039
:100690000DC00DF019C00EF01AC00FF009C010F017
:1006A0000AC015F00DC0E9FF0EC0F3FF0F505BEC60
:1006B0000EF0166E1650D8B440D00CC016F0176A63
:1006C000161E171E1650171005E00CC016F00C066B
:1006D000165033E00DC0E9FF0EC0F3FF0F505BEC86
:1006E0000EF0116E125010E01150E56E04EC0EF099
:1006F000166EE12A165004E0DF0E1114166E02D0B9
:1007000011C016F016C011F01150E56E0250E56EE2
:100710000150E56E0050E56E0EEC0AF0040EE12685
:100720000D2AD8B00E2AD8B00F2A102AD8B0152A10
:100730001350D8B4B7D71306B5D710C009F015C0F9
:100740000AF014502DE010C00CF015C00DF013C0CD
:100750000EF00E5021E0200EE56E0250E56E0150C5
:10076000E56E0050E56E0EEC0AF0040EE1260C2A50
:10077000D8B00D2A0E06EDD70B50E56E0250E56E8F
:100780000150E56E0050E56E0EEC0AF0040EE12615
:10079000092AD8B00A2A04D00CC009F00DC00AF00A
:1007A000032AD8B0042AD8B0052A76EF00F00AC090
:1007B000F3FF0950E4CF1EF0E4CF1DF0E4CF1CF0AE
:1007C000E4CF1BF0E4CF1AF0E4CF19F0E4CF18F037
:1007D000E4CF17F0E4CF16F0E4CF15F0E4CF14F037
:1007E000E4CF13F0E4CF12F0E4CF11F0E4CF10F037
:1007F000E4CF0FF0E4CF0EF0E4CF0DF0E4CF0CF037
:10080000E4CF0BF0E4CF0AF0E4CF09F0E4CF08F036
:10081000E4CF07F0E4CF06F0E4CF05F0E4CF04F036
:10082000E4CF03F0E4CF02F0E4CF01F0E4CF00F036
:10083000E4CFD9FF12003C4E4F20464C4F41543E6E
:100840000000D9CFE5FFE1CFD9FF00C0E5FF01C02F
:10085000E5FF02C0E5FF03C0E5FF04C0E5FF05C0FA
:10086000E5FF06C0E5FF07C0E5FF08C0E5FF020E93
:10087000E56E000EE56E98EC0DF0020EE126480ED6
:10088000006E0D0E016E026A036A00C004F001C022
:1008900005F002C006F003C007F0FF0E0026FF0EB1
:1008A0000122FF0E0222FF0E032204500510061043
:1008B0000710EBE1006A00C001F0026A000E025C62
:1008C00002E1100E015CD8B057D0000E0024016E7A
:1008D000026A0F0E022201C0E9FF02C0EAFFEFCF59
:1008E00001F0015019E100C001F001C002F0036AFB
:1008F000000E035C02E1100E025C0EE2000E012409
:10090000026E036A0F0E032202C0E9FF03C0EAFF72
:10091000200EEF6E012AE9D7000E0024016E026A54
:100920000F0E022201C0E9FF02C0EAFFEFCF01F083
:100930000150E56E010EE56E98EC0DF0020EE12619
:10094000550E016E026A036A046A01C005F002C016
:1009500006F003C007F004C008F0FF0E0126FF0EEA
:100960000222FF0E0322FF0E04220550061007107C
:100970000810EBE1002A9FD7C00EE56E000EE56E71
:1009800098EC0DF0020EE126550E006E016A026A27
:10099000036A00C004F001C005F002C006F003C005
:1009A00007F0FF0E0026FF0E0122FF0E0222FF0EAF
:1009B00003220450051006100710EBE1100E006E24
:1009C00000C001F0026A000E025C02E1200E015C30
:1009D000D8B057D0000E0024016E026A0F0E02221A
:1009E00001C0E9FF02C0EAFFEFCF01F0015019E1B9
:1009F00000C001F001C002F0036A000E035C02E1D6
:100A0000200E025C0EE2000E0124026E036A0F0E3D
:100A1000032202C0E9FF03C0EAFF200EEF6E012AA5
:100A2000E9D7000E0024016E026A0F0E022201C0F7
:100A3000E9FF02C0EAFFEFCF01F00150E56E010EC1
:100A4000E56E98EC0DF0020EE126550E016E026A7D
:100A5000036A046A01C005F002C006F003C007F093
:100A600004C008F0FF0E0126FF0E0222FF0E032233
:100A7000FF0E04220550061007100810EBE1002AB3
:100A80009FD7E4CF08F0E4CF07F0E4CF06F0E4CF3F
:100A900005F0E4CF04F0E4CF03F0E4CF02F0E4CFBC
:100AA00001F0E4CF00F0E4CFD9FF1200D9CFE5FF89
:100AB000E1CFD9FF00C0E5FF01C0E5FF02C0E5FFBF
:100AC00003C0E5FF04C0E5FF05C0E5FF06C0E5FF84
:100AD00007C0E5FF08C0E5FF000EE56E200EE56EDD
:100AE000200EE56E0F0EE56E000EE56EEBEC0BF0E2
:100AF000050EE1260F01206B90909092966A9992D4
:100B000099949990A00E006E090E016E010E026E6E
:100B1000036A00C004F001C005F002C006F003C083
:100B200007F0FF0E0026FF0E0122FF0E0222FF0E2D
:100B300003220450051006100710EBE19094030EF9
:100B40008D6E00000000006A00C001F0026A000E15
:100B5000025C02E1030E015C39E29080110E016E2D
:100B6000026A036A046A01C005F002C006F003C00D
:100B700007F004C008F0FF0E0126FF0E0222FF0E50
:100B80000322FF0E04220550061007100810EBE1A7
:100B90009090480E016E0D0E026E036A046A01C049
:100BA00005F002C006F003C007F004C008F0FF0E15
:100BB0000126FF0E0222FF0E0322FF0E0422055023
:100BC000061007100810EBE1002ABED7380EE56EBC
:100BD000000EE56E98EC0DF0020EE126550E006E4B
:100BE000016A026A036A00C004F001C005F002C095
:100BF00006F003C007F0FF0E0026FF0E0122FF0ED5
:100C00000222FF0E03220450051006100710EBE12C
:100C1000060EE56E000EE56E98EC0DF0020EE12674
:100C2000550E006E016A026A036A00C004F001C03A
:100C300005F002C006F003C007F0FF0E0026FF0E0D
:100C40000122FF0E0222FF0E03220450051006109F
:100C50000710EBE10C0EE56E000EE56E98EC0DF062
:100C6000020EE126550E006E016A026A036A00C098
:100C700004F001C005F002C006F003C007F0FF0E4B
:100C80000026FF0E0122FF0E0222FF0E0322045057
:100C9000051006100710EBE1010EE56E000EE56E83
:100CA00098EC0DF0020EE126480E006E0D0E016E5E
:100CB000026A036A00C004F001C005F002C006F039
:100CC00003C007F0FF0E0026FF0E0122FF0E0222D6
:100CD000FF0E03220450051006100710EBE1E4CFCD
:100CE00008F0E4CF07F0E4CF06F0E4CF05F0E4CF5E
:100CF00004F0E4CF03F0E4CF02F0E4CF01F0E4CF5E
:100D000000F0E4CFD9FF1200D9CFE5FFE1CFD9FF42
:100D100000C0E5FF01C0E5FF02C0E5FF03C0E5FF3D
:100D200004C0E5FF05C0E5FF06C0E5FF07C0E5FF1D
:100D300008C0E5FF09C0E5FF0AC0E5FF0BC0E5FFFD
:100D40000CC0E5FF0DC0E5FF0EC0E5FF0FC0E5FFDD
:100D500010C0E5FF11C0E5FF12C0E5FF13C0E5FFBD
:100D600014C0E5FF15C0E5FF020EDBCF00F0030E57
:100D7000DBCF01F0040EDBCF02F0050EDBCF03F07A
:100D8000060EDBCF04F0070EDBCF05F0080EDBCF3D
:100D900006F0090EDBCF07F000C008F001C009F033
:100DA00002C00AF003C00BF004C00CF005C00DF047
:100DB00006C00EF007C00FF006500710D8B43ED0A2
:100DC00003C010F004C011F005C012F006C013F00B
:100DD00007C014F0FF0E1326D8A0140613501410E9
:100DE0001DE010C0E9FF11C0F3FF12505BEC0EF0E4
:100DF000156E102AD8B0112AD8B0122A15C0E5FFF6
:100E000000C0E9FF01C0F3FF0250B2EC0EF0002A6F
:100E1000D8B0012AD8B0022A1550DCE110C00BF07E
:100E200011C00CF012C00DF000C008F001C009F0B4
:100E300002C00AF013C00EF014C00FF00E500F10D5
:100E400027E10650071009E0000EE56E08C0E9FF33
:100E500009C0F3FF0A50B2EC0EF00BC000F00CC05A
:100E600001F00DC002F000C0E9FF01C0F3FF025025
:100E70005BEC0EF0066E002AD8B0012AD8B0022A28
:100E80000650F1E100C00BF001C00CF002C00DF003
:100E900003500B5C036E04500C58046EFF0E0326C7
:100EA000D8A0040604C0F3FF0350E4CF15F0E4CF4C
:100EB00014F0E4CF13F0E4CF12F0E4CF11F0E4CF5C
:100EC00010F0E4CF0FF0E4CF0EF0E4CF0DF0E4CF5C
:100ED0000CF0E4CF0BF0E4CF0AF0E4CF09F0E4CF5C
:100EE00008F0E4CF07F0E4CF06F0E4CF05F0E4CF5C
:100EF00004F0E4CF03F0E4CF02F0E4CF01F0E4CF5C
:100F000000F0E4CFD9FF1200D9CFE5FFE1CFD9FF40
:100F100000C0E5FF01C0E5FF02C0E5FF03C0E5FF3B
:100F200004C0E5FF05C0E5FF06C0E5FF07C0E5FF1B
:100F300008C0E5FF09C0E5FF0AC0E5FF0BC0E5FFFB
:100F40000CC0E5FF0DC0E5FF0EC0E5FF0FC0E5FFDB
:100F5000020EDBCF00F0030EDBCF01F0040EDBCF7F
:100F600002F0050EDBCF03F0060EDBCF04F0070E18
:100F7000DBCF05F0080EDBCF06F0200E076E086A07
:100F800006C009F00A6A0B6A0C6AE56AE56AE56A56
:100F90000950E56E0350E56E0250E56E0150E56EB6
:100FA0000050E56E60EC08F00D6E080EE126300E84
:100FB0000D263A0E0D5C02E3270E0D26FF0E0726C6
:100FC000D8A00806000E07240E6E0E0E08200F6E25
:100FD0000EC0E9FF0FC0EAFF0DC0EFFF0C50E56E39
:100FE0000B50E56E0A50E56E0950E56E0350E56E54
:100FF0000250E56E0150E56E0050E56E81EC09F09F
:10100000006EF3CF01F0F4CF02F0E9CF03F0080E49
:10101000E1260050011002100310D8A4B1D707C078
:1010200000F008C001F004C002F005C003F000C0E9
:1010300004F001C005F0002AD8B0012A000E0426F1
:101040000E0E052204C0E9FF05C0EAFFEFCF04F051
:1010500002C0E9FF03C0EAFF04C0EFFF022AD8B0D4
:10106000032A000E015C02E1200E005CE0E302C0F6
:10107000E9FF03C0EAFF000EEF6AE4CF0FF0E4CF10
:101080000EF0E4CF0DF0E4CF0CF0E4CF0BF0E4CFA2
:101090000AF0E4CF09F0E4CF08F0E4CF07F0E4CFA2
:1010A00006F0E4CF05F0E4CF04F0E4CF03F0E4CFA2
:1010B00002F0E4CF01F0E4CF00F0E4CFD9FF12005A
:1010C000D9CFE5FFE1CFD9FF00C0E5FF01C0E5FFC3
:1010D00002C0E5FF03C0E5FF04C0E5FF05C0E5FF72
:1010E00006C0E5FF07C0E5FF08C0E5FF09C0E5FF52
:1010F0000AC0E5FF020EDBCF00F0030EDBCF01F0EC
:10110000040EDBCF02F0050EDBCF03F0060EDBCFC3
:1011100004F0070EDBCF05F0080EDBCF06F0090E5A
:10112000DBCF07F0086A096A0744010B0A6E0AB0B0
:101130001BD0045004260536063607360750035CDC
:1011400008E10650025C05E10550015C02E1045033
:10115000005C06E2D890073206320532043204D031
:10116000092A09C008F0E0D70750035C08E10650DF
:10117000025C05E10550015C02E10450005C08E3FB
:101180000450005E0550015A0650025A0750035A97
:10119000D890073206320532043208C009F008063A
:1011A0000950E2E103C0E9FF02C0F4FF01C0F3FF10
:1011B0000050E4CF0AF0E4CF09F0E4CF08F0E4CF28
:1011C00007F0E4CF06F0E4CF05F0E4CF04F0E4CF7D
:1011D00003F0E4CF02F0E4CF01F0E4CF00F0E4CF7D
:1011E000D9FF1200D9CFE5FFE1CFD9FF00C0E5FF5D
:1011F00001C0E5FF02C0E5FF03C0E5FF04C0E5FF55
:1012000005C0E5FF020EDBCF00F0030EDBCF01F0DF
:10121000040EDBCF02F0036A046A0A0EE56E0F0EBD
:10122000E56E4E0EE56E0450E56E0350E56E02501D
:10123000E56E0150E56E84EC07F0070EE126016AC9
:101240000F0E036E4E0E026E800E046E0450E56E9D
:101250000350E56E0250E56E58EC0DF0026EF3CFD0
:1012600003F0030EE12601C004F0056A0550800F6B
:10127000F36E0350800FF35C02E10250045C1CE249
:1012800000C002F0002A036A000E02260F0E03229D
:101290004E0E0124046E056A0F0E052204C0E9FFFC
:1012A00005C0EAFFEFCF04F002C0E9FF03C0EAFF88
:1012B00004C0EFFF012AC4D700C001F0026A000E8B
:1012C000025C02E1200E015C0BE2016A000E0026C6
:1012D0000F0E012200C0E9FF01C0EAFF000EEF6E11
:1012E00021EC04F0E4CF05F0E4CF04F0E4CF03F008
:1012F000E4CF02F0E4CF01F0E4CF00F0E4CFD9FF77
:101300001200D9CFE5FFE1CFD9FF00C0E5FF01C052
:10131000E5FF02C0E5FF03C0E5FF04C0E5FF05C02F
:10132000E5FF06C0E5FF07C0E5FF08C0E5FF09C00F
:10133000E5FF0AC0E5FF0BC0E5FF0CC0E5FF0DC0EF
:10134000E5FF020EDBCF00F0030EDBCF01F0040E51
:10135000DBCF02F0050EDBCF03F0060EDBCF04F08F
:10136000070EDBCF05F0080EDBCF06F0090EDBCF52
:1013700007F0086A096A0A6A0B6A200E0C6E0344B9
:10138000010B0D6E010E0D160050002601360236BF
:1013900003360850082609360A360B360D50D8A4F5
:1013A000088007500B5C08E106500A5C05E1055017
:1013B000095C02E10450085C09E30450085E055032
:1013C000095A06500A5A07500B5A00800C2ED7D7DC
:1013D00003C0E9FF02C0F4FF01C0F3FF0050E4CFF7
:1013E0000DF0E4CF0CF0E4CF0BF0E4CF0AF0E4CF43
:1013F00009F0E4CF08F0E4CF07F0E4CF06F0E4CF43
:1014000005F0E4CF04F0E4CF03F0E4CF02F0E4CF42
:1014100001F0E4CF00F0E4CFD9FF1200D9CFE5FF0F
:10142000E1CFD9FF00C0E5FF01C0E5FF02C0E5FF45
:1014300003C0E5FF04C0E5FF05C0E5FF06C0E5FF0A
:1014400007C0E5FF020EDBCF00F0030EDBCF01F09B
:10145000040EDBCF02F0050EDBCF03F002C006F076
:101460000650046E800A28E100C0E9FF01C0F3FFC6
:101470000250E9EC0DF0056EF3CF06F0F4CF07F063
:1014800003C0E5FF05C0E9FF06C0F3FF0750B2EC5B
:101490000EF0052AD8B0062AD8B0072A05C0E5FF05
:1014A00006C0F4FF07C0F6FF00C0E9FF01C0F3FF6C
:1014B000025098EC0EF01ED004AA1CD0200E041A84
:1014C000045004E10350C3EC0EF014D00450010AA0
:1014D00004E1035002EC00F00DD004500F0A04E1C7
:1014E0000350CBEC0EF006D004500E0A03E103507B
:1014F000C7EC0EF0E4CF07F0E4CF06F0E4CF05F040
:10150000E4CF04F0E4CF03F0E4CF02F0E4CF01F045
:10151000E4CF00F0E4CFD9FF1200E8CFE5FFD8CF49
:10152000E5FFE0CFE5FFF3CFE5FFF4CFE5FFE9CF3F
:10153000E5FFEACFE5FFFACFE5FFFBCFE5FFD9CF27
:10154000E5FFE1CFD9FF00C0E5FF01C0E5FF02C024
:10155000E5FF03C0E5FFD7CF00F0016A0050036E3E
:10156000026AD6CF00F0016A005002240F01576FC3
:10157000015003200F01586F9EA030D0D59ECD9012
:101580000F0E016E210E006E800E026E0F0158517B
:10159000E56E0F015751E56E000EE56E1C0EE56E0F
:1015A000AE0EE56E0250E56E0150E56E0050E56E40
:1015B0000BEC0BF0080EE1260F0E016E210E006EF3
:1015C000800E026E0250E56E0150E56E0050E56E31
:1015D000000EE56E80EC0BF0040EE126E4CF03F084
:1015E000E4CF02F0E4CF01F0E4CF00F0E4CFD9FF84
:1015F000E4CFFBFFE4CFFAFFE4CFEAFFE4CFE9FF5B
:10160000E4CFF4FFE4CFF3FFE4CFE0FFE4CFD8FF73
:10161000E4CFE8FF1000D9CFE5FFE1CFD9FF00C04C
:10162000E5FF01C0E5FF02C0E5FF03C0E5FF04C020
:10163000E5FF05C0E5FF050ED924006E000EDA2097
:10164000016E030E0026D8B0012A020EDBCF03F094
:10165000030EDBCF04F0040EDBCF05F0800EE56E49
:101660000150E56E0050E56E070EDBCFE5FF060E7C
:10167000DBCFE5FF050EDBCFE5FF0550E56E04503F
:10168000E56E0350E56E06EC00F0006EF3CF01F05E
:10169000090EE12606C0E5FF07C0E5FF08C0E5FF2B
:1016A000020EDBCF06F0030EDBCF07F0040EDBCF1C
:1016B00008F000500624026E01500720036EE86A0D
:1016C0000820E4CF08F0E4CF07F0E4CF06F0E56AA5
:1016D00002C0E9FF03C0F3FFB2EC0EF001C0F3FF5C
:1016E0000050E4CF05F0E4CF04F0E4CF03F0E4CF02
:1016F00002F0E4CF01F0E4CF00F0E4CFD9FF120014
:10170000D9CFE5FFE1CFD9FF00C0E5FF01C0E5FF7C
:1017100002C0E5FF03C0E5FF04C0E5FF05C0E5FF2B
:1017200006C0E5FF07C0E5FF020EDBCF00F0030EA9
:10173000DBCF01F0040EDBCF02F0050EDBCF03F0B0
:101740000350E56E0250E56E0150E56E58EC0DF069
:10175000046EF3CF05F0030EE126042A00502008A2
:10176000056E066A000E00260F0E06220650066E53
:101770000050006E800E076E0550045C02E305C049
:1017800004F0056A0550E56E0450E56E0350E56E01
:101790000250E56E0150E56E0750E56E0650E56EAD
:1017A0000050E56E84EC06F0080EE12621EC04F012
:1017B000E4CF07F0E4CF06F0E4CF05F0E4CF04F087
:1017C000E4CF03F0E4CF02F0E4CF01F0E4CF00F087
:1017D000E4CFD9FF1200D9CFE5FFE1CFD9FF00C098
:1017E000E5FF01C0E5FF02C0E5FF03C0E5FF04C05F
:1017F000E5FF05C0E5FF06C0E5FF07C0E5FF08C03F
:10180000E5FF09C0E5FF020EDBCF00F0030EDBCFE2
:1018100001F0040EDBCF02F0050EDBCF03F0060E65
:10182000DBCF04F00150066E0050056E800E076E8F
:1018300003C008F004C009F0FF0E0326D8A0040678
:10184000085009100FE002C0E5FF05C0E9FF06C01F
:10185000F3FF0750B2EC0EF0052AD8B0062AD8B034
:10186000072AE6D7800E026E02C0F4FF01C0F3FF24
:101870000050E4CF09F0E4CF08F0E4CF07F0E4CF64
:1018800006F0E4CF05F0E4CF04F0E4CF03F0E4CFBA
:1018900002F0E4CF01F0E4CF00F0E4CFD9FF120072
:1018A000D9CFE5FFE1CFD9FF00C0E5FF01C0E5FFDB
:1018B00002C0E5FF03C0E5FF04C0E5FF05C0E5FF8A
:1018C00006C0E5FF020EDBCF00F0030EDBCF01F018
:1018D000040EDBCF02F0050EDBCF03F0060EDBCFEC
:1018E00004F0070EDBCF05F0080EDBCF06F0D88042
:1018F00003AED89016E306500A0A13E104C0E9FFCC
:1019000005C0EAFF2D0EEF6E042AD8B0052A031E8B
:10191000021E011E006C05E1012A03E1022AD8B46F
:10192000032A0650E56E0550E56E0450E56E03503F
:10193000E56E0250E56E0150E56E0050E56E84ECF8
:1019400007F0070EE126E4CF06F0E4CF05F0E4CF80
:1019500004F0E4CF03F0E4CF02F0E4CF01F0E4CFF1
:1019600000F0E4CFD9FF1200D9CFE5FFE1CFD9FFD6
:1019700000C0E5FF01C0E5FF02C0E5FF03C0E5FFD1
:1019800004C0E5FF05C0E5FF06C0E5FF07C0E5FFB1
:10199000010EE56E000EE56E98EC0DF0020EE126EC
:1019A000480E006E0D0E016E026A036A00C004F05C
:1019B00001C005F002C006F003C007F0FF0E0026CC
:1019C000FF0E0122FF0E0222FF0E0322045005101B
:1019D00006100710EBE1000EE56E200EE56E200EFE
:1019E000E56E0F0EE56E000EE56EEBEC0BF0050EEE
:1019F000E126E4CF07F0E4CF06F0E4CF05F0E4CF32
:101A000004F0E4CF03F0E4CF02F0E4CF01F0E4CF40
:101A100000F0E4CFD9FF1200780EF66E1D0EF76EBF
:101A2000000EF86E0900F550056E0900F550066EBF
:101A3000055002E106503BE00900F550006E090038
:101A4000F550016E0900F550026E09000900F550CD
:101A5000E96E0900F550EA6E090009000900F55029
:101A6000036E0900F550046E09000900F6CF07F077
:101A7000F7CF08F0F8CF09F000C0F6FF01C0F7FF7C
:101A800002C0F8FF035002E1045007E00900F550DE
:101A9000EE6E0306F8E20406F9D707C0F6FF08C0A9
:101AA000F7FF09C0F8FF0506C4E20606C5D7120015
:101AB000D9CFE5FFE1CFD9FF00C0E5FF01C0E5FFC9
:101AC00002C0E5FF03C0E5FF04C0E5FF05C0E5FF78
:101AD000020EDBCF00F0030EDBCF01F0040EDBCFF4
:101AE00002F0036A046A00C0E9FF01C0F3FF02507C
:101AF0005BEC0EF0056E002AD8B0012AD8B0022A9D
:101B0000055004E0032AD8B0042AEDD704C0F3FF3F
:101B10000350E4CF05F0E4CF04F0E4CF03F0E4CFCA
:101B200002F0E4CF01F0E4CF00F0E4CFD9FF1200DF
:101B3000D9CFE5FFE1CFD9FF00C0E5FF01C0E5FF48
:101B4000020EDBCF00F0030EDBCF01F0966A999412
:101B5000999290920050010BE844E844F46E905042
:101B6000FB0BF410906E01C08DFF00000000908010
:101B70000000000000000000000000000000000065
:101B800000009090E4CF01F0E4CF00F0E4CFD9FF63
:101B90001200E8AE0AD0F3CFEAFFEE50EECFF3FF2B
:101BA000EECFF4FFEECFE9FF1200E8BC11D0E9CF91
:101BB000F6FFF3CFF7FFF86E0900F5500900F5CFF7
:101BC000F3FF0900F5CFF4FF0900F5CFE9FF12009C
:101BD0001200E8AE08D0F3CFEAFFEE50EECFF3FFED
:101BE000EECFF4FF1200E8BC0ED0E9CFF6FFF3CF42
:101BF000F7FFF86E0900F5500900F5CFF3FF090073
:101C0000F5CFF4FF12001200D9CFE5FFE1CFD9FFE5
:101C100000C0E5FF020EDBCF00F0610E005C05E3C3
:101C20007B0E005C02E2010E01D0E86AE4CF00F016
:101C3000E4CFD9FF1200E8AE06D0F3CFEAFFEE50B2
:101C4000EECFF3FF1200E8BC0BD0E9CFF6FFF3CFE5
:101C5000F7FFF86E0900F5500900F5CFF3FF120009
:101C6000120046EC0EF07BEC0EF06CEC0EF0000E69
:101C7000E56E1C0EE56E9E0EE56E000EE56E80ECC8
:101C80000BF0040EE1268AEC0EF01200D9CFE5FF2E
:101C9000E1CFD9FF56EC05F0E4CFD9FF1200537421
:101CA000617274696E6720546573742021005661F7
:101CB0006C3A20257500E8AE04D0F3CFEAFFEE5071
:101CC0001200E8BC08D0E9CFF6FFF3CFF7FFF86EBB
:101CD0000900F55012001200D9CFE5FFE1CFD9FF7E
:101CE000CD9ECD9CCD98CD9ACD86CD82800ECF6EE7
:101CF000E4CFD9FF1200D9CFE5FFE1CFD9FFD59CC2
:101D0000D59AD596D580D582D584D66AD76AE4CFC0
:101D1000D9FF1200D9CFE5FFE1CFD9FFF28ED08EE7
:101D20009D809F809E90CD80D58EE4CFD9FF1200FC
:101D3000E8AE09D0F3CFEAFFE4CFEEFFF4CFEEFF39
:101D4000F6CFEEFF1200E8AC1200120017EEFFF023
:101D500027EEFFF0F86AA68EA69C0CEC0DF031EC95
:101D60000EF0FFD7E8AE05D0F3CFEAFFE4CFEEFFE9
:101D70001200E8AC120012000100941D0000590F7F
:101D8000000001000000ACA2FED7AD6E1200E8CF4B
:081D90007FFF120000001200A9
:00000001FF
