:020000040000FA
:10000000C2EF14F0C96E12004EEF0AF0ACA2FED798
:10001000AD6E120000001200D0EF13F0D9CFE5FF53
:10002000E1CFD9FF00C0E5FF01C0E5FF02C0E5FF59
:1000300003C0E5FF04C0E5FF05C0E5FF06C0E5FF1E
:1000400007C0E5FF08C0E5FF09C0E5FF0AC0E5FFFE
:100050000BC0E5FF0CC0E5FF0DC0E5FF0EC0E5FFDE
:100060000FC0E5FF10C0E5FF11C0E5FF12C0E5FFBE
:1000700013C0E5FF14C0E5FF15C0E5FF16C0E5FF9E
:1000800017C0E5FF18C0E5FF19C0E5FF1AC0E5FF7E
:100090001BC0E5FF1CC0E5FF1DC0E5FF1EC0E5FF5E
:1000A000020EDBCF00F0030EDBCF01F0040EDBCF3E
:1000B00002F0050EDBCF03F0060EDBCF04F0070ED7
:1000C000DBCF05F0080EDBCF06F0090EDBCF07F023
:1000D0000A0EDBCF08F0096A0A6A02C00DF00D5063
:1000E000800A0CE100C020FE01C021FE02C022FEF9
:1000F0000E0E016E200E006E800E026E03C0E9FF30
:1001000004C0F3FF055089EC14F00B6E0B50D8B40B
:10011000DFEF03F00B50250A02E0C4EF03F00C6A96
:100120000D6A0E6A0F6A106A0A0E116E126A136A5D
:10013000146A200E156E1668176A2B0E186E032AA5
:10014000D8B0042AD8B0052A03C0E9FF04C0F3FFE1
:10015000055089EC14F0196E250A15E11950E56E69
:100160000250E56E0150E56E0050E56E83EC0FF035
:10017000040EE126092AD8B00A2A032AD8B0042A94
:10018000D8B0052ABBD71950300A07E1300E156EDA
:10019000032AD8B0042AD8B0052A03C0E9FF04C056
:1001A000F3FF055089EC14F02D0A07E1010E146EDF
:1001B000032AD8B0042AD8B0052A03C0E9FF04C036
:1001C000F3FF055089EC14F0200A09E1010E176EC7
:1001D000200E186E032AD8B0042AD8B0052A03C00E
:1001E000E9FF04C0F3FF055089EC14F02B0A07E186
:1001F000010E176E032AD8B0042AD8B0052A03C00E
:10020000E9FF04C0F3FF055089EC14F0196E800F6C
:100210004F0F2EE31950800F460F2AE203C019F04A
:1002200004C01AF005C01BF019C0E9FF1AC0F3FFA3
:100230001B5089EC14F01C6E800F500F13E31C5000
:10024000800F460F0FE213500A0DF3CF1DF01D5023
:100250001C26D00E1C24136E192AD8B01A2AD8B026
:100260001B2AE2D719C003F01AC004F01BC005F026
:1002700003C0E9FF04C0F3FF055089EC14F02E0A17
:1002800030E1032AD8B0042AD8B0052A166A03C080
:1002900019F004C01AF005C01BF019C0E9FF1AC01C
:1002A000F3FF1B5089EC14F01C6E800F500F13E30A
:1002B0001C50800F460F0FE216500A0DF3CF1DF0B1
:1002C0001D501C26D00E1C24166E192AD8B01A2ACE
:1002D000D8B01B2AE2D719C003F01AC004F01BC023
:1002E00005F003C0E9FF04C0F3FF055089EC14F0EA
:1002F000196E6C0A08E1010E0C6E032AD8B0042AAC
:10030000D8B0052A0AD01950680A07E1010E0E6E0E
:10031000032AD8B0042AD8B0052A03C0E9FF04C0D4
:10032000F3FF055089EC14F0750A07E1010E106E19
:10033000032AD8B0042AD8B0052A03C0E9FF04C0B4
:10034000F3FF055089EC14F0196E730A05E1010EF4
:100350000D6E200E156E41D01950780A03E1100E73
:10036000116E3BD01950580A05E1100E116E010EA6
:10037000126E33D01950630A02E1116A2ED019505F
:100380006F0A03E1080E116E28D01950660A03E1C6
:10039000010E0F6E22D01950640A1FE01950690A2D
:1003A0001CE0105005E0FF0E03260422052215D0A4
:1003B0001950E56E0250E56E0150E56E0050E56E95
:1003C00083EC0FF0040EE126092AD8B00A2A032A8A
:1003D000D8B0042AD8B0052A91D60D5021E0065095
:1003E000030F0D6E000E0720196E000E08201A6E06
:1003F0000DC006F019C007F01AC008F0FD0E0D265A
:10040000FF0E19221A220DC0E9FF19C0F3FF1A507E
:1004100041EC14F00D6EF3CF19F0F4CF1AF000D1C7
:100420000F500DE0460E0D6E080E196E000E1A6E7E
:10043000040E0626000E072208221668F1D0166860
:100440000C5023E00650040F0C6E000E07200F6EB8
:10045000000E08201B6E0CC006F00FC007F01BC07A
:1004600008F0FC0E0C26FF0E0F221B220CC0E9FF29
:100470000FC0F3FF1B5021EC14F00C6EF3CF0FF004
:10048000F4CF1BF0E9CF1CF06AD00E5032E00650DA
:10049000020F0E6E000E07201D6E000E08201E6E4D
:1004A0000EC006F01DC007F01EC008F0FE0E0E269E
:1004B000FF0E1D221E220EC0E9FF1DC0F3FF1E50BD
:1004C00073EC14F00E6E0EC00CF0E86A0EBEFF0E58
:1004D0000F6E1B6E1C6E11500A0A03E11050D8B447
:1004E0003ED00C500E6E0EC00CF00F6A1B6A1C6AD8
:1004F00036D00650020F0E6E000E07201D6E000E45
:1005000008201E6E0EC006F01DC007F01EC008F0C9
:10051000FE0E0E26FF0E1D221E220EC0E9FF1DC07C
:10052000F3FF1E5073EC14F00E6EF3CF1DF00EC0EF
:100530000CF01DC00FF0E86A1DBEFF0E1B6E1C6E96
:1005400011500A0A02E110500AE00C500E6E0F50D2
:100550001D6E0EC00CF01DC00FF01B6A1C6A0F0E42
:10056000196E420E0D6E800E1A6E1150D8B440D026
:10057000105013E01150E56E0F0EE56E420EE56E61
:100580001C50E56E1B50E56E0F50E56E0C50E56E8D
:100590006AEC0CF0070EE12612D01150E56E0F0E3A
:1005A000E56E420EE56E1C50E56E1B50E56E0F5079
:1005B000E56E0C50E56E47EC11F0070EE126175082
:1005C0002FE00DC0E9FF19C0F3FF1A5089EC14F0B9
:1005D0002D0A26E0FF0E0D2619221A2218C0E5FF6B
:1005E0000DC0E9FF19C0F3FF1A50CEEC14F018D07B
:1005F0000CC0E5FF0DC0E9FF19C0F3FF1A50CEECA7
:1006000014F00D50010F0C6E000E19200E6E000E2E
:100610001A20E56A0CC0E9FF0EC0F3FFCEEC14F01F
:100620000DC00CF019C00EF01AC00FF013C010F07E
:10063000105011E00CC0E9FF0EC0F3FF0F5089EC21
:1006400014F0176E175007E00C2AD8B00E2AD8B055
:100650000F2A1006EDD710C013F014501FE109C087
:100660000CF00AC00EF010C00FF00F5011E0155042
:10067000E56E0250E56E0150E56E0050E56E83ECCC
:100680000FF0040EE1260C2AD8B00E2A0F06EDD783
:100690000CC009F00EC00AF00FC013F016C00CF029
:1006A0000DC00DF019C00EF01AC00FF009C010F007
:1006B0000AC015F00DC0E9FF0EC0F3FF0F5089EC22
:1006C00014F0166E1650D8B440D00CC016F0176A4D
:1006D000161E171E1650171005E00CC016F00C065B
:1006E000165033E00DC0E9FF0EC0F3FF0F5089EC48
:1006F00014F0116E125010E01150E56E5CEC14F025
:10070000166EE12A165004E0DF0E1114166E02D0A8
:1007100011C016F016C011F01150E56E0250E56ED2
:100720000150E56E0050E56E83EC0FF0040EE126FB
:100730000D2AD8B00E2AD8B00F2A102AD8B0152A00
:100740001350D8B4B7D71306B5D710C009F015C0E9
:100750000AF014502DE010C00CF015C00DF013C0BD
:100760000EF00E5021E0200EE56E0250E56E0150B5
:10077000E56E0050E56E83EC0FF0040EE1260C2AC6
:10078000D8B00D2A0E06EDD70B50E56E0250E56E7F
:100790000150E56E0050E56E83EC0FF0040EE1268B
:1007A000092AD8B00A2A04D00CC009F00DC00AF0FA
:1007B000032AD8B0042AD8B0052A7EEF00F00AC078
:1007C000F3FF0950E4CF1EF0E4CF1DF0E4CF1CF09E
:1007D000E4CF1BF0E4CF1AF0E4CF19F0E4CF18F027
:1007E000E4CF17F0E4CF16F0E4CF15F0E4CF14F027
:1007F000E4CF13F0E4CF12F0E4CF11F0E4CF10F027
:10080000E4CF0FF0E4CF0EF0E4CF0DF0E4CF0CF026
:10081000E4CF0BF0E4CF0AF0E4CF09F0E4CF08F026
:10082000E4CF07F0E4CF06F0E4CF05F0E4CF04F026
:10083000E4CF03F0E4CF02F0E4CF01F0E4CF00F026
:10084000E4CFD9FF12003C4E4F20464C4F41543E5E
:100850000000D9CFE5FFE1CFD9FF00C0E5FF01C01F
:10086000E5FF02C0E5FF03C0E5FF04C0E5FF05C0EA
:10087000E5FF06C0E5FF07C0E5FF08C0E5FF09C0CA
:10088000E5FF0AC0E5FF0BC0E5FF0CC0E5FF0DC0AA
:10089000E5FF0EC0E5FF000E0E01245D03E1080E2A
:1008A0000E01235DD8B0B8EF07F00FC0E5FF10C010
:1008B000E5FF106A0E0123351036E8341036FC0BC4
:1008C0000F6E000EFB6E080EFA6EE20E0F26105031
:1008D000FA22D8B0FB2A0F50E4CF10F0E4CF0FF08B
:1008E000F96E81EF04F043EF05F05BEF05F0DEEF0A
:1008F00005F061EF06F078EF06F0D7EF06F036EF7F
:1009000007F025CE00F026CE01F00F0E036E540E38
:10091000026E800E046E0450E56E0350E56E0250C8
:10092000E56E0150E56E0050E56EABEC11F0050E82
:10093000E12627CE00F028CE01F00F0E036E570EF1
:10094000026E800E046E0450E56E0350E56E025098
:10095000E56E0150E56E0050E56EABEC11F0050E52
:10096000E12629CE00F02ACE01F00F0E036E5A0EBA
:10097000026E800E046E0450E56E0350E56E025068
:10098000E56E0150E56E0050E56EABEC11F0050E22
:10099000E1260E012F510E01301117E00F0E016EEE
:1009A0005D0E006E800E026E000EE56E1C0EE56E92
:1009B000F80EE56E0250E56E0150E56E0050E56EF2
:1009C00002EC10F0060EE12616D00F0E016E5D0E41
:1009D000006E800E026E000EE56E1C0EE56EFC0EC3
:1009E000E56E0250E56E0150E56E0050E56E02ECDA
:1009F00010F0060EE1260F0E016E5D0E006E800EE9
:100A0000026E0F0E046E5A0E036E800E056E0F0EF0
:100A1000076E570E066E800E086E0F0E0A6E540E8D
:100A2000096E800E0B6E0F0E0D6E210E0C6E800E79
:100A30000E6E0250E56E0150E56E0050E56E0550F9
:100A4000E56E0450E56E0350E56E0850E56E075004
:100A5000E56E0650E56E0B50E56E0A50E56E0950E6
:100A6000E56E000EE56E1D0EE56E000EE56E0E5095
:100A7000E56E0D50E56E0C50E56E02EC10F0120EB6
:100A8000E126B8EF07F00F0E016E210E006E800E0A
:100A9000026E000EE56E1D0EE56E1A0EE56E02503A
:100AA000E56E0150E56E0050E56E02EC10F0060EAA
:100AB000E126B8EF07F025CE00F026CE01F00F0EAC
:100AC000036E540E026E800E046E0450E56E0350E9
:100AD000E56E0250E56E0150E56E0050E56EABEC40
:100AE00011F0050EE12627CE00F028CE01F00F0E02
:100AF000036E570E026E800E046E0450E56E0350B6
:100B0000E56E0250E56E0150E56E0050E56EABEC0F
:100B100011F0050EE12629CE00F02ACE01F00F0ECD
:100B2000036E5A0E026E800E046E0450E56E035082
:100B3000E56E0250E56E0150E56E0050E56EABECDF
:100B400011F0050EE1260F0E016E5A0E006E800E9A
:100B5000026E0F0E046E570E036E800E056E0F0EA2
:100B6000076E540E066E800E086E0F0E0A6E210E72
:100B7000096E800E0B6E0250E56E0150E56E00505E
:100B8000E56E0550E56E0450E56E0350E56E0850C5
:100B9000E56E0750E56E0650E56E000EE56E1D0E23
:100BA000E56E380EE56E0B50E56E0A50E56E0950A5
:100BB000E56E02EC10F00F0EE126DAD125CE00F042
:100BC00026CE01F00F0E036E540E026E800E046EE0
:100BD0000450E56E0350E56E0250E56E0150E56E7F
:100BE0000050E56EABEC11F0050EE12627CE00F0CB
:100BF00028CE01F00F0E036E570E026E800E046EAB
:100C00000450E56E0350E56E0250E56E0150E56E4E
:100C10000050E56EABEC11F0050EE12629CE00F098
:100C20002ACE01F00F0E036E5A0E026E800E046E75
:100C30000450E56E0350E56E0250E56E0150E56E1E
:100C40000050E56EABEC11F0050EE1260F0E016EC3
:100C50005A0E006E800E026E0F0E046E570E036E5B
:100C6000800E056E0F0E076E540E066E800E086E17
:100C70000F0E0A6E210E096E800E0B6E0250E56E8D
:100C80000150E56E0050E56E0550E56E0450E56ECE
:100C90000350E56E0850E56E0750E56E0650E56EB0
:100CA000000EE56E1D0EE56E540EE56E0B50E56E02
:100CB0000A50E56E0950E56E02EC10F00F0EE126C9
:100CC00057D10F0E016E210E006E800E026E000EC7
:100CD000E56E1D0EE56E700EE56E0250E56E01507C
:100CE000E56E0050E56E02EC10F0060EE12640D1F4
:100CF0002BCE00F02CCE01F00F0E036E540E026EC0
:100D0000800E046E0450E56E0350E56E0250E56EF1
:100D10000150E56E0050E56EABEC11F0050EE126DA
:100D20002DCE00F02ECE01F00F0E036E570E026E88
:100D3000800E046E0450E56E0350E56E0250E56EC1
:100D40000150E56E0050E56EABEC11F0050EE126AA
:100D50000F0E016E570E006E800E026E0F0E046EA7
:100D6000540E036E800E056E0F0E076E210E066E7A
:100D7000800E086E0250E56E0150E56E0050E56E83
:100D80000550E56E0450E56E0350E56E000EE56E0D
:100D90001D0EE56E900EE56E0850E56E0750E56E8F
:100DA0000650E56E02EC10F00C0EE126E1D02BCEE1
:100DB00000F02CCE01F00F0E036E540E026E800E6A
:100DC000046E0450E56E0350E56E0250E56E01506E
:100DD000E56E0050E56EABEC11F0050EE1262DCE70
:100DE00000F02ECE01F00F0E036E570E026E800E35
:100DF000046E0450E56E0350E56E0250E56E01503E
:100E0000E56E0050E56EABEC11F0050EE1260F0E1D
:100E1000016E570E006E800E026E0F0E046E540EA1
:100E2000036E800E056E0F0E076E210E066E800E8D
:100E3000086E0250E56E0150E56E0050E56E0550FB
:100E4000E56E0450E56E0350E56E000EE56E1D0E76
:100E5000E56EAA0EE56E0850E56E0750E56E065089
:100E6000E56E02EC10F00C0EE12682D025CE00F0EB
:100E700026CE01F00F0E036E540E026E800E046E2D
:100E80000450E56E0350E56E0250E56E0150E56ECC
:100E90000050E56EABEC11F0050EE12627CE00F018
:100EA00028CE01F00F0E036E570E026E800E046EF8
:100EB0000450E56E0350E56E0250E56E0150E56E9C
:100EC0000050E56EABEC11F0050EE12629CE00F0E6
:100ED0002ACE01F00F0E036E5A0E026E800E046EC3
:100EE0000450E56E0350E56E0250E56E0150E56E6C
:100EF0000050E56EABEC11F0050EE1260F0E016E11
:100F00005A0E006E800E026E0F0E046E570E036EA8
:100F1000800E056E0F0E076E540E066E800E086E64
:100F20000F0E0A6E210E096E800E0B6E0250E56EDA
:100F30000150E56E0050E56E0550E56E0450E56E1B
:100F40000350E56E0850E56E0750E56E0650E56EFD
:100F5000000EE56E1D0EE56EC40EE56E0B50E56EDF
:100F60000A50E56E0950E56E02EC10F00F0EE12616
:100F70000F0E016E210E006E800E026E0250E56EA5
:100F80000150E56E0050E56E000EE56E77EC10F056
:100F9000040EE126E4CF0EF0E4CF0DF0E4CF0CF028
:100FA000E4CF0BF0E4CF0AF0E4CF09F0E4CF08F08F
:100FB000E4CF07F0E4CF06F0E4CF05F0E4CF04F08F
:100FC000E4CF03F0E4CF02F0E4CF01F0E4CF00F08F
:100FD000E4CFD9FF1200D9CFE5FFE1CFD9FF00C0A0
:100FE000E5FF01C0E5FF02C0E5FF03C0E5FF04C067
:100FF000E5FF05C0E5FF06C0E5FF07C0E5FF08C047
:10100000E5FF020EE56E000EE56E9FEC13F0020E9A
:10101000E126480E006E0D0E016E026A036A00C0E2
:1010200004F001C005F002C006F003C007F0FF0E97
:101030000026FF0E0122FF0E0222FF0E03220450A3
:10104000051006100710EBE1006A00C001F0026A0B
:10105000000E025C02E1100E015CD8B057D0000E09
:101060000024016E026A0F0E022201C0E9FF02C0D5
:10107000EAFFEFCF01F0015019E100C001F001C01B
:1010800002F0036A000E035C02E1100E025C0EE245
:10109000000E0124026E036A0F0E032202C0E9FF54
:1010A00003C0EAFF200EEF6E012AE9D7000E0024EC
:1010B000016E026A0F0E022201C0E9FF02C0EAFFC0
:1010C000EFCF01F00150E56E010EE56E9FEC13F0DD
:1010D000020EE126550E016E026A036A046A01C01F
:1010E00005F002C006F003C007F004C008F0FF0ED0
:1010F0000126FF0E0222FF0E0322FF0E04220550DE
:10110000061007100810EBE1002A9FD7C00EE56E0D
:10111000000EE56E9FEC13F0020EE126550E006EF8
:10112000016A026A036A00C004F001C005F002C04F
:1011300006F003C007F0FF0E0026FF0E0122FF0E8F
:101140000222FF0E03220450051006100710EBE1E7
:10115000100E006E00C001F0026A000E025C02E197
:10116000200E015CD8B057D0000E0024016E026A38
:101170000F0E022201C0E9FF02C0EAFFEFCF01F02B
:10118000015019E100C001F001C002F0036A000E35
:10119000035C02E1200E025C0EE2000E0124026EEE
:1011A000036A0F0E032202C0E9FF03C0EAFF200E0C
:1011B000EF6E012AE9D7000E0024016E026A0F0EBD
:1011C000022201C0E9FF02C0EAFFEFCF01F00150A7
:1011D000E56E010EE56E9FEC13F0020EE126550E52
:1011E000016E026A036A046A01C005F002C006F0DB
:1011F00003C007F004C008F0FF0E0126FF0E022214
:10120000FF0E0322FF0E04220550061007100810DF
:10121000EBE1002A9FD7E4CF08F0E4CF07F0E4CF5A
:1012200006F0E4CF05F0E4CF04F0E4CF03F0E4CF20
:1012300002F0E4CF01F0E4CF00F0E4CFD9FF1200D8
:10124000D9CFE5FFE1CFD9FF00C0E5FF01C0E5FF41
:1012500002C0E5FF03C0E5FF04C0E5FF05C0E5FFF0
:1012600006C0E5FF07C0E5FF08C0E5FF000EE56E1C
:10127000200EE56E200EE56E0F0EE56E000EE56E9B
:10128000E2EC10F0050EE1260F01206B9090909299
:10129000966A999299949990A00E006E090E016E2B
:1012A000010E026E036A00C004F001C005F002C026
:1012B00006F003C007F0FF0E0026FF0E0122FF0E0E
:1012C0000222FF0E03220450051006100710EBE166
:1012D0009094030E8D6E00000000006A00C001F0C3
:1012E000026A000E025C02E1030E015C39E29080AA
:1012F000110E016E026A036A046A01C005F002C0A1
:1013000006F003C007F004C008F0FF0E0126FF0E30
:101310000222FF0E0322FF0E0422055006100710C2
:101320000810EBE19090480E016E0D0E026E036AFC
:10133000046A01C005F002C006F003C007F004C053
:1013400008F0FF0E0126FF0E0222FF0E0322FF0E01
:1013500004220550061007100810EBE1002ABED742
:10136000380EE56E000EE56E9FEC13F0020EE126DE
:10137000550E006E016A026A036A00C004F001C0E3
:1013800005F002C006F003C007F0FF0E0026FF0EB6
:101390000122FF0E0222FF0E032204500510061048
:1013A0000710EBE1060EE56E000EE56E9FEC13F004
:1013B000020EE126550E006E016A026A036A00C041
:1013C00004F001C005F002C006F003C007F0FF0EF4
:1013D0000026FF0E0122FF0E0222FF0E0322045000
:1013E000051006100710EBE10C0EE56E000EE56E21
:1013F0009FEC13F0020EE126550E006E016A026AA0
:10140000036A00C004F001C005F002C006F003C08A
:1014100007F0FF0E0026FF0E0122FF0E0222FF0E34
:1014200003220450051006100710EBE1010EE56ED3
:10143000000EE56E9FEC13F0020EE126480E006EE2
:101440000D0E016E026A036A00C004F001C005F0CF
:1014500002C006F003C007F0FF0E0026FF0E0122B7
:10146000FF0E0222FF0E0322045005100610071083
:10147000EBE1E4CF08F0E4CF07F0E4CF06F0E4CFEF
:1014800005F0E4CF04F0E4CF03F0E4CF02F0E4CFC2
:1014900001F0E4CF00F0E4CFD9FF1200E8CFE5FF80
:1014A000D8CFE5FFE0CFE5FFF3CFE5FFF4CFE5FFD1
:1014B000E9CFE5FFEACFE5FFFACFE5FFFBCFE5FF98
:1014C000D9CFE5FFE1CFD9FF00C0E5FFF2A40AD0F4
:1014D000A00ED76EA20ED66EF2940E01292B02E357
:1014E0000E012A2BF0A475D0000E0E01245D03E13D
:1014F000080E0E01235DD8B06BD001C0E5FF02C01D
:10150000E5FF026A0E0123350236E8340236FC0B91
:10151000016E000EFB6E150EFA6E320E01260250A1
:10152000FA22D8B0FB2A0150E4CF02F0E4CF01F058
:10153000F96EA9EF0AF0B9EF0AF0BFEF0AF0C5EFB4
:101540000AF0CBEF0AF0D1EF0AF0D7EF0AF0DDEFA7
:101550000AF0010E0E012F1B006A91B0002A010E45
:10156000001A0050010BF46E9150FE0BF410916EB6
:101570002FD0020E0E01236F0E01246B29D00E0115
:10158000272B02E30E01282B23D00E01252B02E38B
:101590000E01262B1DD0050E0E01236F0E01246BAC
:1015A00017D00E012D2B02E30E012E2B11D00E01B0
:1015B0002B2B02E30E012C2B0BD00E01236B0E0103
:1015C000246B0E012F6B0E01306B919091929194D0
:1015D000F094F0A068D0000E0E01245D03E1080E27
:1015E0000E01235DD8B05ED001C0E5FF02C0E5FF6B
:1015F000026A0E0123350236E8340236FC0B016E16
:10160000000EFB6E160EFA6E200E01260250FA2214
:10161000D8B0FB2A0150E4CF02F0E4CF01F0F96E1C
:1016200020EF0BF026EF0BF02CEF0BF032EF0BF06E
:1016300037EF0BF03CEF0BF042EF0BF047EF0BF006
:10164000010E0E01236F0E01246B2CD0040E0E012F
:10165000236F0E01246B26D0030E0E01236F0E01A3
:10166000246B20D00E01236B0E01246B1BD00E01C6
:10167000236B0E01246B16D0060E0E01236F0E0194
:10168000246B10D00E01236B0E01246B0BD00E01C6
:10169000236B0E01246B0E012F6B0E01306B9190AA
:1016A00091929194F090E4CF00F0E4CFD9FFE4CF91
:1016B000FBFFE4CFFAFFE4CFEAFFE4CFE9FFE4CF9A
:1016C000F4FFE4CFF3FFE4CFE0FFE4CFD8FFE4CFB3
:1016D000E8FF1000D9CFE5FFE1CFD9FF00C0E5FF5B
:1016E00001C0E5FF02C0E5FF03C0E5FF04C0E5FF60
:1016F00005C0E5FF06C0E5FF07C0E5FF08C0E5FF40
:1017000009C0E5FF0AC0E5FF0BC0E5FF0CC0E5FF1F
:101710000DC0E5FF0EC0E5FF0FC0E5FF10C0E5FFFF
:1017200011C0E5FF12C0E5FF13C0E5FF14C0E5FFDF
:1017300015C0E5FF020EDBCF00F0030EDBCF01F09A
:10174000040EDBCF02F0050EDBCF03F0060EDBCF7D
:1017500004F0070EDBCF05F0080EDBCF06F0090E14
:10176000DBCF07F000C008F001C009F002C00AF0AA
:1017700003C00BF004C00CF005C00DF006C00EF065
:1017800007C00FF006500710D8B43ED003C010F0C9
:1017900004C011F005C012F006C013F007C014F029
:1017A000FF0E1326D8A01406135014101DE010C00D
:1017B000E9FF11C0F3FF125089EC14F0156E102AE6
:1017C000D8B0112AD8B0122A15C0E5FF00C0E9FF31
:1017D00001C0F3FF0250CEEC14F0002AD8B0012A69
:1017E000D8B0022A1550DCE110C00BF011C00CF08B
:1017F00012C00DF000C008F001C009F002C00AF0EC
:1018000013C00EF014C00FF00E500F1027E1065059
:10181000071009E0000EE56E08C0E9FF09C0F3FFFC
:101820000A50CEEC14F00BC000F00CC001F00DC05B
:1018300002F000C0E9FF01C0F3FF025089EC14F090
:10184000066E002AD8B0012AD8B0022A0650F1E16B
:1018500000C00BF001C00CF002C00DF003500B5C97
:10186000036E04500C58046EFF0E0326D8A0040625
:1018700004C0F3FF0350E4CF15F0E4CF14F0E4CF3D
:1018800013F0E4CF12F0E4CF11F0E4CF10F0E4CF86
:101890000FF0E4CF0EF0E4CF0DF0E4CF0CF0E4CF86
:1018A0000BF0E4CF0AF0E4CF09F0E4CF08F0E4CF86
:1018B00007F0E4CF06F0E4CF05F0E4CF04F0E4CF86
:1018C00003F0E4CF02F0E4CF01F0E4CF00F0E4CF86
:1018D000D9FF1200D9CFE5FFE1CFD9FF00C0E5FF66
:1018E00001C0E5FF02C0E5FF03C0E5FF04C0E5FF5E
:1018F00005C0E5FF06C0E5FF07C0E5FF08C0E5FF3E
:1019000009C0E5FF0AC0E5FF0BC0E5FF0CC0E5FF1D
:101910000DC0E5FF0EC0E5FF0FC0E5FF020EDBCFF7
:1019200000F0030EDBCF01F0040EDBCF02F0050E5A
:10193000DBCF03F0060EDBCF04F0070EDBCF05F0A4
:10194000080EDBCF06F0200E076E086A06C009F00D
:101950000A6A0B6A0C6AE56AE56AE56A0950E56E8F
:101960000350E56E0250E56E0150E56E0050E56EE5
:1019700046EC0DF00D6E080EE126300E0D263A0EE7
:101980000D5C02E3270E0D26FF0E0726D8A00806E1
:10199000000E07240E6E0E0E08200F6E0EC0E9FF1B
:1019A0000FC0EAFF0DC0EFFF0C50E56E0B50E56E67
:1019B0000A50E56E0950E56E0350E56E0250E56E83
:1019C0000150E56E0050E56EF6EC0EF0006EF3CFC0
:1019D00001F0F4CF02F0E9CF03F0080EE126005049
:1019E000011002100310D8A4B1D707C000F008C03E
:1019F00001F004C002F005C003F000C004F001C013
:101A000005F0002AD8B0012A000E04260E0E052289
:101A100004C0E9FF05C0EAFFEFCF04F002C0E9FF10
:101A200003C0EAFF04C0EFFF022AD8B0032A000E69
:101A3000015C02E1200E005CE0E302C0E9FF03C0AC
:101A4000EAFF000EEF6AE4CF0FF0E4CF0EF0E4CF30
:101A50000DF0E4CF0CF0E4CF0BF0E4CF0AF0E4CFCC
:101A600009F0E4CF08F0E4CF07F0E4CF06F0E4CFCC
:101A700005F0E4CF04F0E4CF03F0E4CF02F0E4CFCC
:101A800001F0E4CF00F0E4CFD9FF1200D9CFE5FF99
:101A9000E1CFD9FF00C0E5FF01C0E5FF02C0E5FFCF
:101AA00003C0E5FF04C0E5FF05C0E5FF06C0E5FF94
:101AB00007C0E5FF08C0E5FF09C0E5FF0AC0E5FF74
:101AC000020EDBCF00F0030EDBCF01F0040EDBCF04
:101AD00002F0050EDBCF03F0060EDBCF04F0070E9D
:101AE000DBCF05F0080EDBCF06F0090EDBCF07F0E9
:101AF000086A096A0744010B0A6E0AB01BD0045039
:101B000004260536063607360750035C08E1065002
:101B1000025C05E10550015C02E10450005C06E254
:101B2000D890073206320532043204D0092A09C09F
:101B300008F0E0D70750035C08E10650025C05E1BD
:101B40000550015C02E10450005C08E30450005EB3
:101B50000550015A0650025A0750035AD8900732CE
:101B600006320532043208C009F008060950E2E1E5
:101B700003C0E9FF02C0F4FF01C0F3FF0050E4CF4F
:101B80000AF0E4CF09F0E4CF08F0E4CF07F0E4CFA7
:101B900006F0E4CF05F0E4CF04F0E4CF03F0E4CFA7
:101BA00002F0E4CF01F0E4CF00F0E4CFD9FF12005F
:101BB000D9CFE5FFE1CFD9FF00C0E5FF01C0E5FFC8
:101BC00002C0E5FF03C0E5FF04C0E5FF05C0E5FF77
:101BD000020EDBCF00F0030EDBCF01F0040EDBCFF3
:101BE00002F0036A046A0A0EE56E0F0EE56E4E0EF1
:101BF000E56E0450E56E0350E56E0250E56E01504F
:101C0000E56E6AEC0CF0070EE126016A0F0E036E1A
:101C10004E0E026E800E046E0450E56E0350E56EAB
:101C20000250E56EF0EC12F0026EF3CF03F0030EFB
:101C3000E12601C004F0056A0550800FF36E0350E1
:101C4000800FF35C02E10250045C1CE200C002F071
:101C5000002A036A000E02260F0E03224E0E0124F4
:101C6000046E056A0F0E052204C0E9FF05C0EAFFF5
:101C7000EFCF04F002C0E9FF03C0EAFF04C0EFFFAA
:101C8000012AC4D700C001F0026A000E025C02E122
:101C9000200E015C0BE2016A000E00260F0E0122ED
:101CA00000C0E9FF01C0EAFF000EEF6EEBEC07F0A9
:101CB000E4CF05F0E4CF04F0E4CF03F0E4CF02F08A
:101CC000E4CF01F0E4CF00F0E4CFD9FF1200D9CF88
:101CD000E5FFE1CFD9FFF184F28AF294D59CD59A41
:101CE000D596D580D582D584A00ED76EA20ED66E9D
:101CF000D58EE4CFD9FF12004F4E20004F4646004C
:101D00002020202025733A25733A25732020202097
:101D1000416C61726D20257300002020202020205E
:101D20004D454E5520202020202020205365742032
:101D300074696D65203F0000536574204D696E75B0
:101D4000746573202020202025733A5B25735D3A4B
:101D50002573000053657420486F7572732020202E
:101D6000202020205B25735D3A25733A25730000FF
:101D70002020202020204D454E55202020202020AE
:101D800053657420416C61726D636C6F636B3F00CF
:101D900053657420416C61726D204D696E20202066
:101DA0002025733A5B25735D000053657420416CF8
:101DB00061726D20486F75727320205B25735D3AE8
:101DC00025730000202020497427732054696D6515
:101DD000202120202020202025733A25733A2573C6
:101DE000000030257500000025750000D9CFE5FF03
:101DF000E1CFD9FF00C0E5FF01C0E5FF02C0E5FF6C
:101E000003C0E5FF04C0E5FF05C0E5FF06C0E5FF30
:101E100007C0E5FF08C0E5FF09C0E5FF0AC0E5FF10
:101E20000BC0E5FF0CC0E5FF0DC0E5FF020EDBCFE8
:101E300000F0030EDBCF01F0040EDBCF02F0050E45
:101E4000DBCF03F0060EDBCF04F0070EDBCF05F08F
:101E5000080EDBCF06F0090EDBCF07F0086A096A2F
:101E60000A6A0B6A200E0C6E0344010B0D6E010E04
:101E70000D1600500026013602360336085008269B
:101E800009360A360B360D50D8A4088007500B5C73
:101E900008E106500A5C05E10550095C02E10450C6
:101EA000085C09E30450085E0550095A06500A5AB6
:101EB00007500B5A00800C2ED7D703C0E9FF02C091
:101EC000F4FF01C0F3FF0050E4CF0DF0E4CF0CF0BD
:101ED000E4CF0BF0E4CF0AF0E4CF09F0E4CF08F050
:101EE000E4CF07F0E4CF06F0E4CF05F0E4CF04F050
:101EF000E4CF03F0E4CF02F0E4CF01F0E4CF00F050
:101F0000E4CFD9FF1200D9CFE5FFE1CFD9FF00C060
:101F1000E5FF01C0E5FF02C0E5FF03C0E5FF04C027
:101F2000E5FF05C0E5FF06C0E5FF07C0E5FF020EBF
:101F3000DBCF00F0030EDBCF01F0040EDBCF02F0AD
:101F4000050EDBCF03F002C006F00650046E800AD7
:101F500028E100C0E9FF01C0F3FF025041EC14F09A
:101F6000056EF3CF06F0F4CF07F003C0E5FF05C020
:101F7000E9FF06C0F3FF0750CEEC14F0052AD8B0F5
:101F8000062AD8B0072A05C0E5FF06C0F4FF07C03F
:101F9000F6FF00C0E9FF01C0F3FF02509AEC14F015
:101FA0001ED004AA1CD0200E041A045004E10350D1
:101FB00006EC00F014D00450010A04E1035002ECD6
:101FC00000F00DD004500F0A04E103500BEC00F0B8
:101FD00006D004500E0A03E10350DFEC14F0E4CF06
:101FE00007F0E4CF06F0E4CF05F0E4CF04F0E4CF4F
:101FF00003F0E4CF02F0E4CF01F0E4CF00F0E4CF4F
:10200000D9FF1200D9CFE5FFE1CFD9FF00C0E5FF2E
:1020100001C0E5FF02C0E5FF03C0E5FF04C0E5FF26
:1020200005C0E5FF050ED924006E000EDA20016E12
:10203000030E0026D8B0012A020EDBCF03F0030EF8
:10204000DBCF04F0040EDBCF05F0800EE56E01500F
:10205000E56E0050E56E070EDBCFE5FF060EDBCF29
:10206000E5FF050EDBCFE5FF0550E56E0450E56E9C
:102070000350E56E0EEC00F0006EF3CF01F0090E98
:10208000E12606C0E5FF07C0E5FF08C0E5FF020E38
:10209000DBCF06F0030EDBCF07F0040EDBCF08F03A
:1020A00000500624026E01500720036EE86A0820E3
:1020B000E4CF08F0E4CF07F0E4CF06F0E56A02C011
:1020C000E9FF03C0F3FFCEEC14F001C0F3FF0050B2
:1020D000E4CF05F0E4CF04F0E4CF03F0E4CF02F066
:1020E000E4CF01F0E4CF00F0E4CFD9FF1200D9CF64
:1020F000E5FFE1CFD9FF00C0E5FF01C0E5FF02C069
:10210000E5FF03C0E5FF04C0E5FF05C0E5FF06C02D
:10211000E5FF07C0E5FF020EDBCF00F0030EDBCFCB
:1021200001F0040EDBCF02F0050EDBCF03F003500D
:10213000E56E0250E56E0150E56EF0EC12F0046EB3
:10214000F3CF05F0030EE126042A00502008056EA7
:10215000066A000E00260F0E06220650066E00507C
:10216000006E800E076E0550045C02E305C004F0AB
:10217000056A0550E56E0450E56E0350E56E0250A9
:10218000E56E0150E56E0750E56E0650E56E0050B5
:10219000E56E6AEC0BF0080EE126EBEC07F0E4CFFD
:1021A00007F0E4CF06F0E4CF05F0E4CF04F0E4CF8D
:1021B00003F0E4CF02F0E4CF01F0E4CF00F0E4CF8D
:1021C000D9FF1200D9CFE5FFE1CFD9FF00C0E5FF6D
:1021D00001C0E5FF02C0E5FF03C0E5FF04C0E5FF65
:1021E00005C0E5FF06C0E5FF07C0E5FF08C0E5FF45
:1021F00009C0E5FF020EDBCF00F0030EDBCF01F0DC
:10220000040EDBCF02F0050EDBCF03F0060EDBCFB2
:1022100004F00150066E0050056E800E076E03C07C
:1022200008F004C009F0FF0E0326D8A004060850E9
:1022300009100FE002C0E5FF05C0E9FF06C0F3FF8B
:102240000750CEEC14F0052AD8B0062AD8B0072AD9
:10225000E6D7800E026E02C0F4FF01C0F3FF00500B
:10226000E4CF09F0E4CF08F0E4CF07F0E4CF06F0C4
:10227000E4CF05F0E4CF04F0E4CF03F0E4CF02F0C4
:10228000E4CF01F0E4CF00F0E4CFD9FF1200D9CFC2
:10229000E5FFE1CFD9FF00C0E5FF01C0E5FF02C0C7
:1022A000E5FF03C0E5FF04C0E5FF05C0E5FF06C08C
:1022B000E5FF020EDBCF00F0030EDBCF01F0040ED2
:1022C000DBCF02F0050EDBCF03F0060EDBCF04F010
:1022D000070EDBCF05F0080EDBCF06F0D88003AE8B
:1022E000D89016E306500A0A13E104C0E9FF05C0BE
:1022F000EAFF2D0EEF6E042AD8B0052A031E021E37
:10230000011E006C05E1012A03E1022AD8B4032A68
:102310000650E56E0550E56E0450E56E0350E56E1F
:102320000250E56E0150E56E0050E56E6AEC0CF06F
:10233000070EE126E4CF06F0E4CF05F0E4CF04F089
:10234000E4CF03F0E4CF02F0E4CF01F0E4CF00F0FB
:10235000E4CFD9FF1200D9CFE5FFE1CFD9FF00C00C
:10236000E5FF01C0E5FF02C0E5FF03C0E5FF04C0D3
:10237000E5FF020EDBCF00F0030EDBCF01F0040E11
:10238000DBCF02F0050EDBCF03F0060EDBCF04F04F
:102390000150800F800F02E10A0E005C15E201502F
:1023A000E56E0050E56E000EE56E1D0EE56EE20E68
:1023B000E56E0450E56E0350E56E0250E56E02ECEA
:1023C00010F0080EE12614D00150E56E0050E56EC5
:1023D000000EE56E1D0EE56EE80EE56E0450E56E2E
:1023E0000350E56E0250E56E02EC10F0080EE12697
:1023F000E4CF04F0E4CF03F0E4CF02F0E4CF01F047
:10240000E4CF00F0E4CFD9FF1200D9CFE5FFE1CF50
:10241000D9FF00C0E5FF01C0E5FF02C0E5FF03C032
:10242000E5FF04C0E5FF05C0E5FF06C0E5FF07C006
:10243000E5FF010EE56E000EE56E9FEC13F0020E57
:10244000E126480E006E0D0E016E026A036A00C09E
:1024500004F001C005F002C006F003C007F0FF0E53
:102460000026FF0E0122FF0E0222FF0E032204505F
:10247000051006100710EBE1000EE56E200EE56E6C
:10248000200EE56E0F0EE56E000EE56EE2EC10F02C
:10249000050EE126E4CF07F0E4CF06F0E4CF05F027
:1024A000E4CF04F0E4CF03F0E4CF02F0E4CF01F096
:1024B000E4CF00F0E4CFD9FF1200B00EF66E290E83
:1024C000F76E000EF86E0900F550056E0900F55024
:1024D000066E055002E106503BE00900F550006E23
:1024E0000900F550016E0900F550026E090009005F
:1024F000F550E96E0900F550EA6E0900090009007F
:10250000F550036E0900F550046E09000900F6CF7E
:1025100007F0F7CF08F0F8CF09F000C0F6FF01C0D0
:10252000F7FF02C0F8FF035002E1045007E0090082
:10253000F550EE6E0306F8E20406F9D707C0F6FF81
:1025400008C0F7FF09C0F8FF0506C4E20606C5D7B4
:102550001200D9CFE5FFE1CFD9FF00C0E5FF01C0F0
:10256000E5FF02C0E5FF03C0E5FF006A0E0125514B
:102570000E012B1906E10E0126510E012C1901E165
:10258000002A016A00BE01680E012F5100160E01DB
:1025900030510116026A0E0127510E012D1906E174
:1025A0000E0128510E012E1901E1022A036A02BE12
:1025B000036802500016035001160050011005E098
:1025C000070E0E01236F0E01246BE4CF03F0E4CF5E
:1025D00002F0E4CF01F0E4CF00F0E4CFD9FF120025
:1025E000D9CFE5FFE1CFD9FF00C0E5FF01C0E5FF8E
:1025F00002C0E5FF03C0E5FF04C0E5FF05C0E5FF3D
:10260000020EDBCF00F0030EDBCF01F0040EDBCFB8
:1026100002F0036A046A00C0E9FF01C0F3FF025040
:1026200089EC14F0056E002AD8B0012AD8B0022A2D
:10263000055004E0032AD8B0042AEDD704C0F3FF04
:102640000350E4CF05F0E4CF04F0E4CF03F0E4CF8F
:1026500002F0E4CF01F0E4CF00F0E4CFD9FF1200A4
:102660000E01236B0E01246BF28ED08E20EC09F04C
:102670000E01256B0E01266B0E01276B0E01286BD8
:102680000E01296B0E012A6B0E012B6B0E012C6BB8
:102690000E012D6B0E012E6B0E012F6B0E01306B98
:1026A00067EC0EF0B5EC14F0A8EC14F068EC13F045
:1026B000A9EC12F029EC04F00E012351070A03E102
:1026C0000E01245101E0F2D7FBEC13F0EFD712001A
:1026D000D9CFE5FFE1CFD9FF000E0E012A5D03E15E
:1026E0003C0E0E01295D0BE3C40E0E01292702E208
:1026F0000E012A070E01272B02E30E01282B0E01E3
:1027000027513C0A03E10E01285101E009D00E01D6
:10271000276B0E01286B0E01252B02E30E01262BE1
:10272000000E0E01265D03E1180E0E01255D04E387
:102730000E01256B0E01266BE4CFD9FF1200D9CF15
:10274000E5FFE1CFD9FF00C0E5FF01C0E5FF020EC4
:10275000DBCF00F0030EDBCF01F0966A99949992DB
:1027600090920050010BE844E844F46E9050FB0B4B
:10277000F410906E01C08DFF0000000090800000FA
:102780000000000000000000000000000000000049
:102790009090E4CF01F0E4CF00F0E4CFD9FF120035
:1027A000E8CFE5FFD8CFE5FFE0CFE5FFF3CFE5FFCA
:1027B000F4CFE5FFE9CFE5FFEACFE5FFFACFE5FF8C
:1027C000FBCFE5FFD9CFE5FFE1CFD9FFE4CFD9FFBC
:1027D000E4CFFBFFE4CFFAFFE4CFEAFFE4CFE9FF69
:1027E000E4CFF4FFE4CFF3FFE4CFE0FFE4CFD8FF82
:1027F000E4CFE8FF1000D9CFE5FFE1CFD9FF00C05B
:10280000E5FF006A91B2002A010E001A0050010B88
:10281000E844F46E9150FD0BF410916E006A91B48F
:10282000002A010E001A0050010BE844E844F46E3F
:102830009150FB0BF410916EE4CF00F0E4CFD9FF80
:102840001200E8AE0AD0F3CFEAFFEE50EECFF3FF6E
:10285000EECFF4FFEECFE9FF1200E8BC11D0E9CFD4
:10286000F6FFF3CFF7FFF86E0900F5500900F5CF3A
:10287000F3FF0900F5CFF4FF0900F5CFE9FF1200DF
:102880001200E8AE08D0F3CFEAFFEE50EECFF3FF30
:10289000EECFF4FF1200E8BC0ED0E9CFF6FFF3CF85
:1028A000F7FFF86E0900F5500900F5CFF3FF0900B6
:1028B000F5CFF4FF12001200D9CFE5FFE1CFD9FF29
:1028C00000C0E5FF020EDBCF00F0610E005C05E307
:1028D0007B0E005C02E2010E01D0E86AE4CF00F05A
:1028E000E4CFD9FF1200E8AE06D0F3CFEAFFEE50F6
:1028F000EECFF3FF1200E8BC0BD0E9CFF6FFF3CF29
:10290000F7FFF86E0900F5500900F5CFF3FF12004C
:102910001200E8AE04D0F3CFEAFFEE501200E8BC9C
:1029200008D0E9CFF6FFF3CFF7FFF86E0900F550B6
:1029300012001200E8AE09D0F3CFEAFFE4CFEEFFB9
:10294000F4CFEEFFF6CFEEFF1200E8AC120012005B
:10295000D9CFE5FFE1CFD9FF9A909A929A949190BE
:1029600091929194E4CFD9FF1200D9CFE5FFE1CF46
:10297000D9FFF19AF196F094F090F086F08AE4CFC6
:10298000D9FF120017EEFFF027EEFFF0F86AA68ECF
:10299000A69C5DEC12F030EC13F0FFD7E8AE05D04A
:1029A000F3CFEAFFE4CFEEFF1200E8AC1200120012
:1029B000010014000000310E000001000000E8CF0B
:0429C0007FFF120083
:00000001FF
